:020000040800F2
:100000000000012081430008154100081741000845
:10001000194100081B4100081D41000800000000B4
:100020000000000000000000000000001F41000868
:10003000214100080000000023410008254100087C
:10004000D1430008D1430008D1430008D143000840
:10005000D1430008D1430008D1430008D143000830
:10006000D1430008D1430008D1430008D143000820
:10007000D1430008D1430008D143000829410008BA
:100080003541000841410008D1430008D143000830
:10009000D1430008D1430008D1430008D1430008F0
:1000A000D1430008D1430008D1430008D1430008E0
:1000B000D1430008D1430008D1430008D1430008D0
:1000C000D1430008D1430008D1430008D1430008C0
:1000D0004D410008D143000859410008D1430008B0
:1000E000D1430008D1430008D1430008D1430008A0
:1000F000D1430008D1430008D1430008D143000890
:10010000D14300080000000000000000D1430008B7
:10011000D1430008D1430008D1430008D14300086F
:10012000D1430008D1430008D1430008D14300085F
:10013000D1430008D1430008000000000000000087
:10014000D1430008D1430008D1430008000000005B
:10015000000000000000000000000000000000009F
:10016000D1430008D1430008D1430008D14300081F
:10017000D1430008D1430008D1430008D14300080F
:10018000D1430008D1430008000000000000000037
:04019000D14300084F
:1001A00010B5054C237833B9044B13B10448AFF3B1
:1001B00000800123237010BDD00200200000000049
:1001C0009C4B020808B5034B1BB103490348AFF32E
:1001D000008008BD00000000D40200209C4B0208F3
:1001E00001F0FF01102A2BDB10F0070F08D010F8E8
:1001F000013B013A8B422DD010F0070F42B3F6D1EC
:10020000F0B441EA012141EA014122F007047FF004
:1002100000070023F0E80256083C85EA010586EA5B
:10022000010685FA47F5A3FA87F586FA47F6A5FA97
:1002300087F68EB9EED1F0BC01F0FF0102F00702A3
:1002400032B110F8013B013A83EA010313B1F8D14E
:100250000020704701387047002D06BF354603382F
:10026000073815F0010F07D1013015F4807F02BF68
:10027000013015F4C03F0130F0BC0138704700BFB9
:1002800010F8012B11F8013B012A28BF9A42F7D040
:10029000D01A7047034613F8012B002AFBD1181A15
:1002A0000138704781F0004102E000BF83F0004355
:1002B00030B54FEA41044FEA430594EA050F08BF01
:1002C00090EA020F1FBF54EA000C55EA020C7FEAC5
:1002D000645C7FEA655C00F0E2804FEA5454D4EB42
:1002E0005555B8BF6D420CDD2C4480EA020281EA0C
:1002F000030382EA000083EA010180EA020281EA44
:100300000303362D88BF30BD11F0004F4FEA013195
:100310004FF4801C4CEA113102D0404261EB4101A4
:1003200013F0004F4FEA03334CEA133302D052422A
:1003300063EB430394EA050F00F0A780A4F10104E6
:10034000D5F1200E0DDB02FA0EFC22FA05F2801820
:1003500041F1000103FA0EF2801843FA05F3594106
:100360000EE0A5F120050EF1200E012A03FA0EFC85
:1003700028BF4CF0020C43FA05F3C01851EBE371AF
:1003800001F0004507D54FF0000EDCF1000C7EEBCC
:1003900000006EEB0101B1F5801F1BD3B1F5001F0A
:1003A0000CD349085FEA30004FEA3C0C04F1010429
:1003B0004FEA445212F5800F80F09A80BCF1004F52
:1003C00008BF5FEA500C50F1000041EB045141EAD4
:1003D000050130BD5FEA4C0C404141EB010111F4D5
:1003E000801FA4F10104E9D191F0000F04BF014680
:1003F0000020B1FA81F308BF2033A3F10B03B3F15E
:1004000020020CDA0C3208DD02F1140CC2F10C02ED
:1004100001FA0CF021FA02F10CE002F11402D8BF4B
:10042000C2F1200C01FA02F120FA0CFCDCBF41EA17
:100430000C019040E41AA2BF01EB0451294330BDE6
:100440006FEA04041F3C1CDA0C340EDC04F11404C3
:10045000C4F1200220FA04F001FA02F340EA03009A
:1004600021FA04F345EA030130BDC4F10C04C4F1E0
:10047000200220FA02F001FA04F340EA03002946C0
:1004800030BD21FA04F0294630BD94F0000F83F40A
:10049000801306BF81F480110134013D4EE77FEAED
:1004A000645C18BF7FEA655C29D094EA050F08BF39
:1004B00090EA020F05D054EA000C04BF194610461A
:1004C00030BD91EA030F1EBF0021002030BD5FEA5E
:1004D000545C05D14000494128BF41F0004130BD86
:1004E00014F580043CBF01F5801130BD01F00045DA
:1004F00045F0FE4141F470014FF0000030BD7FEA4D
:10050000645C1ABF194610467FEA655C1CBF0B4647
:10051000024650EA013406BF52EA033591EA030F5E
:1005200041F4002130BD00BF90F0000F04BF002156
:10053000704730B54FF4806404F132044FF0000589
:100540004FF0000150E700BF90F0000F04BF002102
:10055000704730B54FF4806404F1320410F0004568
:1005600048BF40424FF000013EE700BF42004FEA63
:10057000E2014FEA31014FEA02701FBF12F07F43E0
:1005800093F07F4F81F06051704792F0000F14BFDD
:1005900093F07F4F704730B54FF4607401F0004521
:1005A00021F0004120E700BF50EA010208BF704778
:1005B00030B54FF000050AE050EA010208BF70476D
:1005C00030B511F0004502D5404261EB41014FF4D6
:1005D000806404F132045FEA915C3FF4DCAE4FF0DA
:1005E00003025FEADC0C18BF03325FEADC0C18BFC1
:1005F000033202EBDC02C2F1200300FA03FC20FA12
:1006000002F001FA03FE40EA0E0021FA02F114445E
:10061000C1E600BF70B54FF0FF0C4CF4E06C1CEA73
:1006200011541DBF1CEA135594EA0C0F95EA0C0FE8
:1006300000F0DEF82C4481EA030621EA4C5123EA5B
:100640004C5350EA013518BF52EA033541F480118A
:1006500043F4801338D0A0FB02CE4FF00005E1FB3D
:1006600002E506F00042E0FB03E54FF00006E1FB87
:1006700003569CF0000F18BF4EF0010EA4F1FF04CA
:10068000B6F5007F64F5407404D25FEA4E0E6D410A
:1006900046EB060642EAC62141EA55514FEAC5201B
:1006A00040EA5E504FEACE2EB4F1FD0C88BFBCF597
:1006B000E06F1ED8BEF1004F08BF5FEA500E50F148
:1006C000000041EB045170BD06F0004646EA01010E
:1006D00040EA020081EA0301B4EB5C04C2BFD4EB40
:1006E0000C0541EA045170BD41F480114FF0000E39
:1006F000013C00F3AB8014F1360FDEBF002001F0A7
:10070000004170BDC4F10004203C35DA0C341BDC20
:1007100004F11404C4F1200500FA05F320FA04F0F2
:1007200001FA05F240EA020001F0004221F0004126
:1007300010EBD37021FA04F642EB06015EEA430E99
:1007400008BF20EAD37070BDC4F10C04C4F12005C9
:1007500000FA04F320FA05F001FA04F240EA02007C
:1007600001F0004110EBD37041F100015EEA430E4D
:1007700008BF20EAD37070BDC4F1200500FA05F26D
:100780004EEA020E20FA04F301FA05F243EA0203EC
:1007900021FA04F001F0004121FA04F220EA0200FB
:1007A00000EBD3705EEA430E08BF20EAD37070BD41
:1007B00094F0000F0FD101F00046400041EB010121
:1007C00011F4801F08BF013CF7D041EA060195F003
:1007D000000F18BF704703F00046520043EB0303BD
:1007E00013F4801F08BF013DF7D043EA06037047AA
:1007F00094EA0C0F0CEA135518BF95EA0C0F0CD0B5
:1008000050EA410618BF52EA4306D1D181EA0301FA
:1008100001F000414FF0000070BD50EA410606BFF4
:100820001046194652EA430619D094EA0C0F02D139
:1008300050EA013613D195EA0C0F05D152EA03367E
:100840001CBF104619460AD181EA030101F000419C
:1008500041F0FE4141F470014FF0000070BD41F0E5
:10086000FE4141F4780170BD70B54FF0FF0C4CF4BF
:10087000E06C1CEA11541DBF1CEA135594EA0C0FDE
:1008800095EA0C0F00F0A7F8A4EB050481EA030E2B
:1008900052EA03354FEA013100F088804FEA033312
:1008A0004FF0805545EA131343EA12634FEA0222E0
:1008B00045EA111545EA10654FEA00260EF00041A1
:1008C0009D4208BF964244F1FD0404F5407402D2F3
:1008D0005B084FEA3202B61A65EB03055B084FEA84
:1008E00032024FF480104FF4002CB6EB020E75EB81
:1008F000030E22BFB61A754640EA0C005B084FEAA9
:100900003202B6EB020E75EB030E22BFB61A754625
:1009100040EA5C005B084FEA3202B6EB020E75EB70
:10092000030E22BFB61A754640EA9C005B084FEAE8
:100930003202B6EB020E75EB030E22BFB61A7546F5
:1009400040EADC0055EA060E18D04FEA051545EAE4
:1009500016754FEA06164FEAC30343EA52734FEA8D
:10096000C2025FEA1C1CC0D111F4801F0BD141EA06
:1009700000014FF000004FF0004CB6E711F4801F6B
:1009800004BF01430020B4F1FD0C88BFBCF5E06F4B
:100990003FF6AFAEB5EB030C04BFB6EB020C5FEA5B
:1009A000500C50F1000041EB045170BD0EF0004EB0
:1009B0004EEA113114EB5C04C2BFD4EB0C0541EAE2
:1009C000045170BD41F480114FF0000E013C90E6DF
:1009D00045EA060E8DE60CEA135594EA0C0F08BFA3
:1009E00095EA0C0F3FF43BAF94EA0C0F0AD150EAA2
:1009F00001347FF434AF95EA0C0F7FF425AF104635
:100A000019462CE795EA0C0F06D152EA03353FF45C
:100A1000FDAE1046194622E750EA410618BF52EAD9
:100A200043067FF4C5AE50EA41047FF40DAF52EAAD
:100A300043057FF4EBAE12E74FF0FF3C06E000BF4A
:100A40004FF0010C02E000BF4FF0010C4DF804CD57
:100A50004FEA410C7FEA6C5C4FEA430C18BF7FEA17
:100A60006C5C1BD001B050EA410C0CBF52EA430C45
:100A700091EA030F02BF90EA020F0020704710F1C5
:100A8000000F91EA030F58BF994208BF90422CBF54
:100A9000D8176FEAE37040F0010070474FEA410C4D
:100AA0007FEA6C5C02D150EA013C07D14FEA430C6B
:100AB0007FEA6C5CD6D152EA033CD3D05DF8040BDC
:100AC000704700BF8446104662468C46194663460E
:100AD00000E000BF01B5FFF7B7FF002848BF10F1E5
:100AE000000F01BD4DF808EDFFF7F4FF0CBF01202A
:100AF00000205DF808FB00BF4DF808EDFFF7EAFFA6
:100B000034BF012000205DF808FB00BF4DF808ED60
:100B1000FFF7E0FF94BF012000205DF808FB00BF55
:100B20004DF808EDFFF7CEFF94BF012000205DF8DF
:100B300008FB00BF4DF808EDFFF7C4FF34BF0120EC
:100B400000205DF808FB00BF4FEA410C7FEA6C5CB7
:100B500002D150EA013C0AD14FEA430C7FEA6C5CB7
:100B600002D152EA033C02D14FF0000070474FF02F
:100B7000010070474FEA410212F5001215D211D55B
:100B80006FF47873B3EB625212D94FEAC12343F08A
:100B9000004343EA505311F0004F23FA02F018BF0C
:100BA000404270474FF00000704750EA013005D1D5
:100BB00011F0004008BF6FF0004070474FF0000098
:100BC000704700BF4A0011D212F5001211D20DD5A4
:100BD0006FF47873B3EB62520ED44FEAC12343F043
:100BE000004343EA505323FA02F070474FF00000ED
:100BF000704750EA013002D14FF0FF3070474FF09C
:100C0000000070474FEA4102B2F1E04324BFB3F560
:100C1000001CDCF1FE5C0DD901F0004C4FEAC00273
:100C20004CEA5070B2F1004F40EB830008BF20F057
:100C30000100704711F0804F21D113F13872BCBF11
:100C400001F00040704741F480114FEA5252C2F166
:100C50001802C2F1200C10FA0CF320FA02F018BFAF
:100C600040F001004FEAC1234FEAD32303FA0CFC02
:100C700040EA0C0023FA02F34FEA4303CCE77FEA91
:100C8000625307D150EA01331EBF4FF0FE4040F4DB
:100C90004000704701F0004040F0FE4040F400008A
:100CA000704700BF53B94AB9002908BF00281CBFCC
:100CB0004FF0FF314FF0FF3001F0F6B8ADF1080C06
:100CC0006DE904CE00F006F8DDF804E0DDE902236A
:100CD00004B070472DE9F0478C460D460446089E47
:100CE000002B51D18A4217466DD9B2FA82FEBEF16D
:100CF000000F0BD0CEF1200C01FA0EF520FA0CFCFF
:100D000002FA0EF74CEA050C00FA0EF44FEA174A05
:100D1000250CBCFBFAF81FFA87F90AFB18CC45EA48
:100D20000C4508FB09F3AB420AD9ED1908F1FF3273
:100D300080F02381AB4240F22081A8F102083D44BB
:100D4000ED1AA4B2B5FBFAF00AFB105544EA0544CB
:100D500000FB09F9A14509D9E41900F1FF3380F03E
:100D60000A81A14540F2078102383C44A4EB090402
:100D700040EA08400021002E61D024FA0EF400233E
:100D800034607360BDE8F0878B4207D9002E54D0E1
:100D9000002186E821000846BDE8F087B3FA83F118
:100DA000002940F08E80AB4202D3824200F2FA80EA
:100DB000841A65EB03050120AC46002E3FD086E87F
:100DC0001010BDE8F08712B90127B7FBF2F7B7FAA8
:100DD00087FEBEF1000F34D1EB1B3A0C1FFA87FCE3
:100DE0000121B3FBF2F8250C02FB183345EA034559
:100DF0000CFB08F3AB4207D9ED1908F1FF3002D222
:100E0000AB4200F2D1808046ED1AA3B2B5FBF2F0FE
:100E100002FB105543EA05440CFB00FCA44507D92E
:100E2000E41900F1FF3302D2A44500F2B88018465D
:100E3000A4EB0C0440EA08409DE731463046BDE88B
:100E4000F087CEF1200405FA0EF307FA0EF720FA28
:100E500004F83A0C25FA04F448EA0308B4FBF2F16A
:100E60004FEA184502FB11441FFA87FC45EA044586
:100E700001FB0CF3AB4200FA0EF409D9ED1901F1B4
:100E8000FF3080F08A80AB4240F2878002393D44D7
:100E9000EB1A1FFA88F5B3FBF2F002FB103345EAB8
:100EA000034500FB0CF3AB4207D9ED1900F1FF3805
:100EB0006FD2AB426DD902383D44EB1A40EA014192
:100EC0008FE7C1F1200722FA07F88B4005FA01F4F9
:100ED00048EA030320FA07FE4FEA134CFD404EEAAE
:100EE000040EB5FBFCF94FEA1E440CFB19551FFA22
:100EF00083F844EA054509FB08F4AC4202FA01F222
:100F000000FA01FA08D9ED1809F1FF3043D2AC42DA
:100F100041D9A9F102091D442D1B1FFA8EFEB5FB14
:100F2000FCF00CFB10554EEA054400FB08F8A04508
:100F300007D9E41800F1FF3529D2A04527D9023896
:100F40001C4440EA0940A4EB0804A0FB02894C457C
:100F5000C6464D4615D312D056B1BAEB0E0364EB1C
:100F6000050404FA07F7CB401F43CC403760746098
:100F70000021BDE8F0871846F8E69046E0E6C24555
:100F8000EAD2B8EB020E69EB03050138E4E7284624
:100F9000D7E7404691E78146BEE7014678E7023849
:100FA0003C4445E7084608E7A8F102083D442BE722
:100FB00003685A004CBF43F0004323F00043184439
:100FC000704700BF61B32DE9F84F01F1FF3A904639
:100FD0000646D146002707EB090404EBD4746410DD
:100FE000E50071190846FFF7E3FFA245834605F1C6
:100FF0000800304409D0FFF7DBFFC34500F1FF30A4
:1010000005D8404509D2671CE5E7C34505D9A74285
:1010100002D004F1FF39DEE700210846BDE8F88F71
:1010200008467047012807D0022807D0044B002843
:101030000CBF1846002070470248704702487047AE
:10104000291700082D1700083117000830B5244B68
:1010500083B004468D1E7BB301A92846AFF3008000
:1010600020B301992A46FFF7ADFF0146F0B1FFF723
:101070009FFF4B68A064012B12D0002B01F10400EC
:1010800020DBFFF795FF0023E06423650368002B56
:101090001CDBFFF78DFF00232061184603B030BD35
:1010A000002323610523184603B030BD00232361CC
:1010B0000923184603B030BD0A490B48091AC91064
:1010C0000191CFE70123E0642365DFE7C3F3036009
:1010D000FFF7A8FF0028206114BF00230923DCE7E5
:1010E0000000000094B702088CB602080368DA0713
:1010F00010B5044606D49B0700F1480009D500F05E
:1011000051FC2368590709D51A070ED5DB0613D5FC
:1011100010BD00F03FFC23685907F5D404F1D0005E
:1011200000F048FC23681A07F0D404F5A87000F01A
:1011300049FC2368DB06EBD404F5E870BDE81040F9
:1011400000F084BC036803B103441846704700BF35
:1011500009207047704700BF70B504460D4608E08F
:101160002B6C63612A462369214601209847082891
:1011700008D1296C2046FFF769FF06460028EFD00A
:101180001BF07EFF0728FBD13046296CFFF7E2FFFA
:10119000281D00F0F3FB00BF2DE9F0470C1D0546AC
:1011A00092460FCCADF5727D03AE0FC60FCC0FC6C5
:1011B0000FCC0FC694E80F0002ACD5F80C80D5F820
:1011C000189086E80F0000232846216C2360FFF763
:1011D0003DFFBAF1000F074614BF0A2609267FB16A
:1011E000A36B46F010018DE810022A4663640120CB
:1011F0002B46C04778BB38460DF5727DBDE8F087B9
:10120000236C6B614FF4F07221467AA81CF0D3FC7A
:101210002B697AAA294630469847889B82468DE8F2
:101220001002314663642A462B460120C04790B91C
:101230004FF4F0727AA920461CF0BDFCBAF1080FF9
:1012400006D1216C2846FFF701FF09260746C6E7AD
:10125000BAF1070F05D0092738460DF5727DBDE8B4
:10126000F0873846216CFFF775FF03A800F086FB76
:10127000406C7047F0B5CB6B0B640E1D0F460446F7
:101280000FCEF9B001AD0FC50FCE0FC50FCE0FC5F4
:1012900096E80F004FF0FF3685E80F00009606E055
:1012A00023696A46214698470828054608D11099BF
:1012B0002046FFF7CBFE0028F2D0092079B0F0BD20
:1012C0006846FFF713FF062DF7D139462046FFF792
:1012D00043FF00BF30B4DD6BC160826119461D64FD
:1012E000002230BC58E700BF70B5C66843690B6484
:1012F00026B10122FFF750FF1BF0C2FE03690A4628
:1013000004460D46014602209847072807D00828C2
:1013100003D129462046FFF71FFF1BF0B1FE3046E0
:10132000296CFFF717FF281D00F028FBC2681AB1CF
:10133000CA6B0A6400222FE79CE700BF704700BF1A
:10134000836813B1014601201847704700B504298E
:1013500007D8DFE801F00309060909000BB90F2AD5
:1013600005D902205DF804FB01205DF804FB00EBC9
:10137000820218465368019A13605DF804FB00BFAF
:1013800010B584B0002303AC0A4600941946FFF759
:10139000DDFF039804B010BD00B5042907D8DFE8CD
:1013A00001F00309060909000BB90F2A05D902202B
:1013B0005DF804FB01205DF804FB019900EB82025B
:1013C0000968516018465DF804FB00BF10B584B091
:1013D00004AC002344F8042D0A4600941946FFF794
:1013E000DBFF04B010BD00BFF0B5D36B1364151D57
:1013F00007460E460FCDADF50F7D17AC0FC40FCDD0
:101400000FC40FCD0FC495E80F004FF0FF3584E8EF
:101410000F00169510E016A8FFF7D8FF314616A862
:10142000B84716AA694678B9049B0820984705284A
:1014300004460AD0092807D026996846FFF706FE19
:101440006A460C210028E6D0092416A8FFF74EFEB4
:1014500020460DF50F7DF0BD2DE9F04F0D46C96C0E
:101460008BB00C1D096807919146089400F0030B9E
:101470001E46002B60D10902032307918DF82560D9
:101480008DF824302B6DBBF1020F08BFAC6B13F04D
:10149000010340D1019300F008030393D4F80080C6
:1014A000B8F1000F39D0022E43D0B4F8008067881D
:1014B0000434AB6C27F0010A0F2148469A44FFF729
:1014C0005FFF824533D828F001039A4450452CBF72
:1014D000002001207F0007F0020708F0010847EA1A
:1014E0000807012F3ED035D3022F1CD1236823F0EB
:1014F00000420292BBF1000F76D128B10399002976
:101500007ED0002A00F0A680002B77DB029B0133FF
:1015100004EB8304C2E700230193022E3EDDFFF7B4
:1015200017FE002840D009200BB0BDE8F08F002046
:10153000D0E767680834BCE7022BA3DC0B0CDAB2F7
:1015400009048DF82530022304EB820407918DF8FD
:10155000243097E7BBF1000F02D0002840F0BD8097
:1015600004349BE7BBF1000F25D1A8B194E80C002F
:10157000991C4FEAD272D6D005F158010133069179
:1015800000F0A380201DFFF7DDFD06AB01462846D5
:10159000AFF30080002877D108347FE707A94846D9
:1015A00000F0EEFA0028BED1019B002B5CD1082090
:1015B0000BB0BDE8F08F0D2148462F6AFFF7E0FE23
:1015C0008742E9D1AB6A9C42E6D12046FFF7F0FCA6
:1015D0000F2102464846FFF7F9FE48462A460021F9
:1015E000FFF7F4FE07209FE70D2148462F6AFFF71B
:1015F000C7FE874258D02368002B87DA043485E77A
:10160000029B3BB305F15803271DCDF810B0DDF860
:101610000C80DDF808A00596A3461C4602E0B24502
:10162000B04616D038460694FFF78CFD06AB01464F
:1016300000222846AFF3008008F101060437002895
:10164000EDD0029B059E43455C46DDF810B0D2D13B
:1016500000E05C4648460D21FFF792FE069B28629B
:10166000AC626B6206205FE70F214846FFF788FEF9
:101670000E2102464846FFF7A9FE4846294A0F2197
:10168000FFF7A4FE07204FE707460D214846FFF766
:1016900077FE022F28621DD12B46069A43F82C2F85
:1016A0006B62AC6206203FE7AB6A9C42A3D1042286
:1016B0000027A3180299A962EF622A636B6323686B
:1016C000BB421DDB0123019320E748460D21FFF7B4
:1016D00057FE2862069B6B62E3E72046FFF768FC33
:1016E00004340646AC632846AFF3008000283FF47C
:1016F0001AAF484632460F21FFF768FE072013E76E
:101700000846013004EB8000FFF752FC0F2102462F
:101710004846FFF75BFE48462A463946FFF756FE25
:10172000072001E700000000002395E6012393E66F
:10173000022391E6F0B50446C5B004290DD8DFE8D0
:1017400001F053030C310F00012B4FEA124695B202
:1017500062D17219102A40F29B80022045B0F0BD80
:10176000002BFAD1102AF8D82368D80600F1C680D9
:1017700022AE3046019200F073F9A06B019A00236B
:10178000012505FA03F1114203D0016846F8231040
:1017900004300133042BF4D1A063304600F056F935
:1017A0000020DBE7032BD8D1150C97B2EB19102BD7
:1017B000D3D823681E0700F1B58022AE304600F072
:1017C00023F9ED00A36B4FB1043D711903EBC70082
:1017D00053F8042B41F8042F8342F9D13046A36318
:1017E00000F0F0F80020B9E7002BB6D1A56B97B256
:1017F000201D012606FA03F1394203F1010302D04C
:10180000296801600435102B00F10400F2D112F4B4
:1018100000503BD1A563A1E7052B9ED17719202F5E
:101820009BD80F2E66D92F46002D3AD12A46002785
:10183000002AA06B72DD00EBC202014644A800EB57
:10184000C6008C3851F8045B40F8045F9142F9D12E
:10185000084697B1102E324644A938BF102201EB3A
:10186000C202A2F5C4727900043A00EB810150F87B
:10187000045B42F8045F8842F9D1012B48D00F2E57
:10188000A16333D917B102A800F094F8002065E7EE
:101890000F2E3FF662AF00272268D10717D4002F22
:1018A00060D02268510745D4012B4DD00F2E06D8A9
:1018B00022A8019300F07AF8019B002FB6D002A86D
:1018C000019300F07BF8019BC6F11002B0E722F013
:1018D0000101052B2160019320463BD022F0030239
:1018E00040F8482B00F05AF8019BD8E722A800F0F6
:1018F00059F8C7E7102FCED9103FCDE723F01003DA
:10190000236004F5E870019200F0AAF8019A2FE72D
:101910000431A16322A800F03DF8B7E7002F99D168
:101920000146AAE723F00803236004F5A87000F03D
:101930006BF842E7204622F0040240F8D02B0193D6
:1019400000F03CF8019BAFE722A8019300F026F8D5
:10195000019BB9E741F0020140F8481B00F026F86E
:10196000019B9CE7012B03D00F2E3FF65FAF9FE753
:1019700022A8019300F012F8019B57E700F134010F
:1019800091E838009C46A6464CF8045D90E8FF0FAD
:10199000E54600BD90EC210B704700BF80EC210BA9
:1019A000704700BF90EC200B704700BF80EC200B0D
:1019B000704700BFD0EC200B704700BFC0EC200B7D
:1019C000704700BFF0EC0201F0EC0211F0EC0221D4
:1019D000F0EC0231F0EC0241F0EC0251F0EC02616B
:1019E000F0EC0271F0EC0281F0EC0291F0EC02A15B
:1019F000F0EC02B1F0EC02C1F0EC02D1F0EC02E14B
:101A0000F0EC02F1704700BFE0EC0201E0EC0211E3
:101A1000E0EC0221E0EC0231E0EC0241E0EC0251AA
:101A2000E0EC0261E0EC0271E0EC0281E0EC02919A
:101A3000E0EC02A1E0EC02B1E0EC02C1E0EC02D18A
:101A4000E0EC02E1E0EC02F1704700BFB0FC018184
:101A5000B0FC0191B0FC01A1B0FC01B1704700BF26
:101A6000A0FC0181A0FC0191A0FC01A1A0FC01B19E
:101A7000704700BFEC4600B52DE900502DE9FF1F6F
:101A80004FF000032DE90C0001A9FFF7F3FBDDF88F
:101A900040E012B0704700BFEC4600B52DE90050A1
:101AA0002DE9FF1F4FF000032DE90C0001A9FFF7FE
:101AB0001BFCDDF840E012B0704700BFEC4600B5FB
:101AC0002DE900502DE9FF1F4FF000032DE90C0018
:101AD00001A9FFF72BFCDDF840E012B0704700BF12
:101AE000EC4600B52DE900502DE9FF1F4FF0000333
:101AF0002DE90C0001ABFFF7EDFBDDF840E012B083
:101B0000704700BFEC4600B52DE900502DE9FF1FDE
:101B10004FF000032DE90C0001AAFFF765FCDDF88A
:101B200040E012B0704700BF027A1AB9437A43B955
:101B3000B02070470368013A02721A020260180E60
:101B400070474268013B10B4437213680321141DAF
:101B500001721A02446002605DF8044B180E70476F
:101B600000B585B003AA0023009219460C22FFF7A6
:101B7000EDFB039805B05DF804FB00BFF0E700BF84
:101B80002DE9F043064685B00F464FF00008384671
:101B9000FFF7CAFFB028044623D0050627D4002348
:101BA0000DF10C09194685000D22CDF80090304644
:101BB000FFF7CCFBEDB2039BCDF80090600605F17A
:101BC00004054CBF5D1BED18002319460D2230465D
:101BD0000395FFF7E1FB3846FFF7A6FFB028044660
:101BE000DBD1B8F1000F00F0958000201CE000F080
:101BF000F003802B5DD0902B19D0A02B2CD0B02BD4
:101C00003FD0C02B6CD000F0F803D02B0BD100F0EC
:101C10000702013242F40022052301213046FFF77A
:101C200089FD0028B3D0092005B0BDE8F08300F09D
:101C30000D030D2BF7D003AD002300F00F02194662
:101C400000953046FFF782FB0023009519460D22D0
:101C50003046FFF7A1FB9AE7C24302F007034FF4B7
:101C60007F621A41010702F47F624FF0000348BF10
:101C700042F4804219463046FFF75CFD0028D2D17D
:101C800085E7B12857D0B22868D0B32800F09580F6
:101C900000F0FC03B42BC6D000F007020132012390
:101CA00042F4002219463046FFF744FD0028BAD11D
:101CB0006DE73846FFF738FF24020443B4F5004FC0
:101CC000B1D024010023A2B219463046FFF732FDFD
:101CD0000028A8D114F4004F18BF4FF0010856E7B0
:101CE000C6287DD0C72800F0868000F0F803C02BFE
:101CF00000F09480C82800F09F80C92893D138460E
:101D0000FFF712FF020300F00F0002F4702201300F
:101D1000024381E703AC43460E224146009430461D
:101D2000FFF714FB0094304643460F224146FFF76D
:101D300033FB404678E73846FFF7F6FE00283FF4CD
:101D400072AF10F0F0037FF46EAF024619463046D2
:101D5000FFF7F0FC00287FF466AF18E700230DF1D1
:101D60000C090D221946CDF800903046FFF7EEFA27
:101D70003846FFF7D9FE02064FF002040CD5039B4C
:101D800000F07F00A040034438460393FFF7CCFEE9
:101D9000030604F10704F2D4039BCDF8009000F091
:101DA0007F02A24003F501740023144419460D225A
:101DB00030460394FFF7F0FAE9E63846FFF7B4FE41
:101DC000010300F00F0001F47021421C01230A43BB
:101DD00030461946FFF7AEFC00287FF424AFD6E664
:101DE0003846FFF7A1FE010300F00F0001F4702157
:101DF000421C0323EBE73846FFF796FE00283FF42A
:101E000012AF10F0F0037FF40EAF0246042130460B
:101E1000FFF790FC00287FF406AFB8E600F00F0251
:101E20000132032342F4202219463046FFF782FC98
:101E300000287FF4F8AEAAE63846FFF775FE00F0FA
:101E4000F00200F00F031032013343EA0232E3E6FE
:101E500010B5C36C84B05A6803208DF80C00DC798F
:101E60008DF80D4012020833084601A90192029331
:101E7000FFF786FE04B010BD08B5FFF77FFE806C4B
:101E800008BD00BF08B5FFF779FEC06CC37900EB51
:101E90008300083008BD00BF08B51BF0F1F800BF93
:101EA00008B5FFF7F9FF00BF704700BF38B50E4A0D
:101EB0000E4B054618784FF47A73B3FBF0F31068B5
:101EC000B0FBF3F000F0A0F8044658B90F2D09D884
:101ED000024629464FF0FF3000F056F8044B2046EA
:101EE0001D6038BD012038BD3000002024000020D6
:101EF00028000020074A08B5136843F01003136058
:101F0000032000F02FF80020FFF7D0FF02F0EAF8DE
:101F1000002008BD00200240034A044B11681B78D2
:101F20000B441360704700BF4C1D002024000020AC
:101F3000014B1868704700BF4C1D002038B504469F
:101F4000FFF7F6FF631C1CBF054B1B78054618BF47
:101F5000E418FFF7EDFF401B8442FAD838BD00BFFC
:101F600024000020074AD36823F4E0631B041B0C01
:101F700043F0BF63000243F4003300F4E060034326
:101F8000D360704700ED00E0174B30B5DC68C4F358
:101F90000224C4F10703251D042B28BF0423062DAA
:101FA0004FF0010505FA03F303F1FF338CBF033C47
:101FB00000241940A14005FA04F4013C2240002805
:101FC00042EA01024FEA0212AFBF00F1604000F0A6
:101FD0000F00064BD2B2A5BF00F56140D2B21A5431
:101FE00080F8002330BD00BF00ED00E014ED00E0FC
:101FF0004209012300F01F0003FA00F0014B43F8EF
:102000002200704700E100E00138B0F1807F0AD281
:10201000064B074A5860F02182F82310002007225F
:1020200098601A6070470120704700BF10E000E020
:1020300000ED00E001680C4B994210B54FF014041C
:1020400009D80A4A0A44B2FBF4F292000264A3F2ED
:102050000743C36310BD064B0B44B3FBF4F39B0073
:102060000364044BF5E700BF07040240F8FFFDBF1F
:10207000F8FBFDBF0004024038B5044608B3022354
:10208000856880F82130436801682B43C5680A6879
:102090002B4305692B4345692B4385692B43C56950
:1020A00022F47F5222F030022B4313430B60FFF7E0
:1020B000C1FF00200123A06384F8213084F82000B0
:1020C00038BD012038BD90F82120022A10B503D078
:1020D00004228263012010BD0268C46B1168436B47
:1020E00021F00E011160116821F001011160026CF4
:1020F000012101FA02F26260002480F8211080F8C8
:10210000204013B19847204610BD184610BDC16B42
:10211000026C036870B40E681D6804249440264263
:102120000ED015F0040F0BD01A6892065EBF1A6825
:1021300022F004021A60C36A4C6073B370BC184783
:1021400002249440264212D015F0020F0FD01A68D4
:10215000950606D41A6822F00A021A60012380F854
:10216000213000234C6080F82030836AE5E70824A2
:102170009440344211D02C070FD51C6824F00E0473
:102180001C60012303FA02F24A60836380F8213065
:10219000002380F82030036BCFE770BC704700004D
:1021A0002DE9F74FD1F80080DFF89091614A0023C4
:1021B00038FA03F402D103B0BDE8F08F4FF0010EFE
:1021C0000EFA03FE18EA0E0600F0A6804C6824F012
:1021D0001007022F16D14FEAD30A00EB8A0A03F048
:1021E000070BDAF820504FEA8B0B4FF00F0C0CFA6C
:1021F0000BFC25EA0C0C0D6905FA0BF545EA0C05FC
:10220000CAF820504FEA430A0325D0F800B005FA77
:102210000AF5ED4304F0030C0BEA050B0CFA0AFC7B
:10222000013F4CEA0B0C012FC0F800C011D88768A1
:1022300007EA050BCF6807FA0AFC4CEA0B07876030
:10224000476827EA0E0EC4F300179F4047EA0E07BF
:102250004760C7683D408F6807FA0AF73D43C5608D
:10226000E50059D5D9F8185045F00105C9F81850BE
:10227000D9F8185023F0030707F1804705F001054E
:1022800007F58037019503F0030C019DBD684FEA07
:102290008C0C4FF00F0E0EFA0CFEB0F1904F25EAA9
:1022A0000E0E3BD0244DA8423AD005F58065A842D9
:1022B00038D005F58065A84236D005F58065A8427E
:1022C00034D005F58065A84232D005F58065A84276
:1022D00014BF0725062505FA0CF545EA0E05BD6075
:1022E0001568F74314F4803F0CBF3D40354315603B
:1022F000556814F4003F0CBF3D4035435560956868
:1023000014F4801F0CBF3D4035439560D568A4028E
:1023100054BF3D403543D560013349E70025DAE736
:102320000125D8E70225D6E70325D4E70425D2E71F
:102330000525D0E7000401400004004800100240D9
:102340000AB1816170478162704700002DE9F3474F
:10235000054618B9012002B0BDE8F0870368DF0721
:1023600011D42B689E0700F188802B681C0700F1B0
:10237000FC802B68580700F14581AA69002A40F0CB
:10238000DC810020E7E7BD4C636803F00C03042BFD
:102390000AD0636803F00C03082B19D1636803F4B7
:1023A000C033B3F5803F13D14FF4003393FAA3F257
:1023B000216893FAA3F3B3FA83F303F01F03012216
:1023C00002FA03F30B42CCD06B68002BC9D1C1E7F2
:1023D0006B68B3F5803F1ED1236843F480332360DC
:1023E000FFF7A6FD4FF400368046012796FAA6F3C4
:1023F000226896FAA6F3B3FA83F303F01F0307FAF1
:1024000003F31342ADD1FFF793FDA0EB080064285E
:10241000ECD903209FE70BBB236823F480332360B0
:10242000236823F480232360FFF782FD4FF40036F6
:102430008046012796FAA6F3226896FAA6F3B3FA25
:1024400083F303F01F0307FA03F3134289D0FFF766
:102450006FFDA0EB08006428ECD9DAE7B3F5A02FF4
:10246000236803D143F480232360B5E723F480334A
:102470002360236823F48023B1E7804C636813F062
:102480000C0F0AD0636803F00C03082B25D1636896
:1024900003F4C033B3F5004F1FD1022393FAA3F224
:1024A000216893FAA3F3B3FA83F303F01F03012225
:1024B00002FA03F30B4203D0EB6893427FF44AAF76
:1024C0002168F82393FAA3F3B3FA83F22B699340BC
:1024D00021F0F8021343236047E7EA6801260AB3B4
:1024E00096FAA6F3B3FA83F303F1845303F5841346
:1024F0009B0002271E60FFF71BFD804697FAA7F39B
:10250000226897FAA7F3B3FA83F303F01F0306FADE
:1025100003F31342D4D1FFF70BFDA0EB0800022810
:10252000ECD976E796FAA6F3B3FA83F303F1845372
:1025300003F584139B0002271A60FFF7F9FC80461D
:1025400097FAA7F3226897FAA7F3B3FA83F303F095
:102550001F0306FA03F313423FF407AFFFF7E8FC4B
:10256000A0EB08000228EBD953E76A69434E4449BF
:1025700001241AB394FAA4F3B3FA83F30B449B0037
:1025800002271C60FFF7D4FC804697FAA7F397FA5E
:10259000A7F397FAA7F3726A97FAA7F3B3FA83F34C
:1025A00003F01F0304FA03F313427FF4E2AEFFF7D4
:1025B000BFFCA0EB08000228E7D92AE794FAA4F3AD
:1025C000B3FA83F30B449B0002271A60FFF7B0FCB9
:1025D000804697FAA7F397FAA7F397FAA7F3726AD8
:1025E00097FAA7F3B3FA83F303F01F0304FA03F394
:1025F00013423FF4BEAEFFF79BFCA0EB080002289D
:10260000E7D906E71D4CE369D90034D4E36943F008
:102610008053E361E36903F080530193019B01263A
:10262000184F3B68DA052FD5AB68012B3DD1236AE3
:1026300043F001032362FFF77BFC02278246B94681
:102640004FF0010897FAA7F397FAA7F3002B6CD085
:10265000226A99FAA9F3B3FA83F303F01F0308FA85
:1026600003F3134258D0002E3FF487AEE36923F002
:102670008053E36181E60026D2E700BF00100240EC
:1026800020819010007000403B6843F480733B60F1
:10269000FFF74EFC80463B68DB05C5D4FFF748FCDE
:1026A000A0EB08006428F6D9B3E63BBB236A23F00D
:1026B00001032362236A23F004032362FFF738FC3B
:1026C00002278246B9464FF0010897FAA7F397FA16
:1026D000A7F373B3226A99FAA9F3B3FA83F303F069
:1026E0001F0308FA03F31342BDD0FFF721FC41F2A8
:1026F0008833A0EB0A009842E7D98AE6052B236AC3
:1027000003D143F00403236291E723F00103236222
:10271000236A23F004038DE7FFF70AFC41F28833B4
:10272000A0EB0A0098428DD973E697FAA7F3626A84
:102730008FE797FAA7F3626ACDE7444C636803F02A
:102740000C03082B3FF406AE022A4FF0807358D1D9
:1027500093FAA3F3B3FA83F303F1845303F58413D9
:102760009B0000221A60FFF7E3FB4FF000778046E2
:10277000012697FAA7F3226897FAA7F3B3FA83F32F
:1027800003F01F0306FA03F3134233D1E36A6A6AC4
:1027900023F00F031343E36262682B6AE96922F4B2
:1027A00076120B43134363604FF0807393FAA3F3E5
:1027B000B3FA83F303F1845303F584139B004FF0C2
:1027C00000751E60FFF7B4FB0126074695FAA5F3D6
:1027D000226895FAA5F3B3FA83F303F01F0306FA10
:1027E00003F313427FF4CDADFFF7A2FBC01B022819
:1027F000ECD90EE6FFF79CFBA0EB08000228B8D945
:1028000007E693FAA3F3B3FA83F303F1845303F5D2
:1028100084139B0000221A60FFF78AFB4FF00075BB
:102820000746012695FAA5F3226895FAA5F3B3FAAF
:1028300083F303F01F0306FA03F313423FF4A1AD41
:10284000FFF776FBC01B0228ECD9E2E5001002403E
:1028500011494B6803F00C02082A1AD14FF4701288
:1028600092FAA2F20F20B2FA82F2C96A90FAA0F0AC
:10287000B0FA80F001F00F0103F47013D340C140AF
:10288000064A0748415C0748B0FBF1F1D05C484379
:1028900070470448704700BF00100240087A0208E1
:1028A000187A020800127A002DE9F0410D4604461C
:1028B00010B90120BDE8F0814C4A136803F007030A
:1028C0008B422ED32268910736D4D2073CD4474A94
:1028D000136803F007039D4275D32268444D12F03C
:1028E000040F7CD1130706D56B68226923F460536B
:1028F00043EAC2036B60FFF7ABFF6B68F02292FA0A
:10290000A2F2B2FA82F203F0F003D340394AD35C68
:10291000D840394B18600020FFF7C8FA0020BDE806
:10292000F081136823F007030B431360136803F06F
:1029300007039942BDD1C5E72D49A0684B6823F034
:10294000F00303434B60C0E76268294E012A27D198
:102950004FF4003393FAA3F1316893FAA3F3B3FA77
:1029600083F303F01F0302FA03F30B42A1D0736851
:1029700023F003031A437260FFF7DAFA41F2883852
:1029800007467368626803F00C03B3EB820F9ED0B6
:10299000FFF7CEFAC01B4045F3D90320BDE8F08114
:1029A000022A0CBF4FF00073022393FAA3F13068A0
:1029B00093FAA3F3B3FA83F303F01F03012101FA9F
:1029C00003F30342D2E7136823F007032B4313609A
:1029D000136803F007039D427FF46BAF7DE76B68DC
:1029E000E16823F4E0630B436B607BE70020024067
:1029F000001002402C7A020830000020084B4FF4EF
:102A0000E0625B6892FAA2F2B2FA82F203F4E06347
:102A1000D340044AD35C044A1068D840704700BFD2
:102A2000001002403C7A020830000020084B4FF4AE
:102A300060525B6892FAA2F2B2FA82F203F4605337
:102A4000D340044AD35C044A1068D840704700BFA2
:102A5000001002403C7A02083000002003682DE993
:102A6000F347DF03044623D59B4DEB69DE0000F1FD
:102A7000D780EB6943F08053EB61EB6903F080533F
:102A80000193019B0126954F3B68D80540F1CA8010
:102A90002B6A13F4407340F0DA802B6A626823F4E7
:102AA000407313432B621EB1EB6923F08053EB613B
:102AB0002068C30706D5884AA168136B23F0030377
:102AC0000B431363870706D5834AE168136B23F42E
:102AD00040330B431363460706D57F4A2169136BC6
:102AE00023F440230B431363850606D57A4AE16934
:102AF000136B23F010030B431363810306D5764A4F
:102B0000616D536823F480030B435360420606D57E
:102B1000714A216A136B23F020030B4313634303B1
:102B200006D56D4A616A136B23F040030B431363B0
:102B3000070706D5684A6169136B23F440130B43FA
:102B40001363C60606D5644AA169136B23F44003D8
:102B50000B431363850506D55F4A216B536823F445
:102B600000030B435360010606D55B4AA16AD36A92
:102B700023F4F8730B43D362C20506D5564AE16AC3
:102B8000D36A23F478530B43D362C30406D5524A65
:102B9000616B136B23F480730B431363870406D5B7
:102BA0004D4A216C136B23F400730B431363C6026D
:102BB00006D5494AA16B136B23F080730B43136353
:102BC000850206D5444AE16B136B23F000730B4377
:102BD0001363410206D5404A616C136B23F4806392
:102BE0000B431363020206D53B4AA16C136B23F41B
:102BF00000630B431363C30106D5374AE16C136BC3
:102C000023F400530B43136310F000701CD0324ABE
:102C1000216D136B23F400430B431363002013E077
:102C2000002630E73B6843F480733B60FFF780F990
:102C300080463B68D9053FF52BAFFFF779F9A0EB4C
:102C400008006428F5D9032002B0BDE8F087626867
:102C500002F4407293423FF420AF296A4FF480336C
:102C600021F4407093FAA3F2DFF874E0B2FA82F232
:102C7000724492000127176093FAA3F3B3FA83F327
:102C800073449B0000221A60CA0728627FF505AFD3
:102C9000FFF74EF94FF002088246C14698FAA8F3B2
:102CA00098FAA8F3A3B12A6A99FAA9F3B3FA83F3BD
:102CB00003F01F0307FA03F313427FF4EEAEFFF7AE
:102CC00037F941F28833A0EB0A009842E6D9BAE717
:102CD00098FAA8F36A6AE7E7001002400070004023
:102CE0000081901003685A6822F0E0025A6042683E
:102CF000B2F5827F0AD18268B2F5004F02D0B2F5F8
:102D0000806F03D11A6822F040021A60826AB2F51D
:102D1000005F07D11A6822F400521A601A6842F460
:102D200000521A60012380F85D30002380F85C3087
:102D30000320704770B505460C4616462B68986808
:102D400010F080000DD0621CF9D024B92846BDE8EF
:102D50007040FFF7C7BFFFF7EBF8801B8442EDD848
:102D6000F4E770BDF7B506460C4615461F463168B8
:102D7000886820400ED0B4F5C06F01BF0A7BD2B284
:102D80008DF807209DF807306B1CF1D025B930462F
:102D9000FFF7A8FF03B0F0BDFFF7CAF8C01B8542DC
:102DA000E5D8F4E770B513460D4616460A464FF4CB
:102DB000C0510446FFF7D6FF28B1236E43F020032D
:102DC000236603200FE0324629462046FFF7B2FF74
:102DD0000028F2D133462A464FF4C0612046FFF75F
:102DE000C1FF0028E9D170BD70B5044600284ED05F
:102DF0000023836290F85D3003F0FF021BB980F876
:102E00005C2001F01BF90223216884F85D300B6817
:102E1000E26823F04003B2F5E06F0B604FF000036F
:102E200032D91846B2F5706F18BFA362236B2BB965
:102E3000B2F5E06F8CBF022301232363A6686368A9
:102E4000A56933432669334366693343E6693343EF
:102E5000266A3343A66A334305F4007633430B6096
:102E6000636A1A43636B2D0C1A4305F004052A4369
:102E700002434A60CB6923F40063CB610020012345
:102E8000206684F85D3070BD4FF48050CCE701209F
:102E900070BD2DE9F3411E4690F85C30012B0446CD
:102EA0000D46904600F0B180012380F85C30FFF7BA
:102EB0003FF8074694F85D00C0B2012840F0A380B7
:102EC000002D57D0B8F1000F54D0032384F85D30A3
:102ED000002323662364A4F83E80A4F84430A4F8B9
:102EE00046302365E364A3682068A563B3F5004F0B
:102EF00008BF0368A4F83C8004BF43F48043036028
:102F000003685B065EBF036843F040030360E36849
:102F1000B3F5E06F63683ED91BB1E38F9BB2012B21
:102F200006D135F8023BC360E38F013B9BB2E387D8
:102F3000E38F9BB2A3B93A4631462046FFF732FFF2
:102F400000285DD1A36833B901932368DA68019240
:102F50009B680193019B206E003018BF012009E09F
:102F600023689A68900703D535F8022BDA60DBE70F
:102F70004EB90320012384F85D30002384F85C30CF
:102F800002B0BDE8F081711CD2D0FEF7D1FFC01BAA
:102F90008642CDD8EDE71BB1E38F9BB2012B0AD15E
:102FA000E38F9BB2012B16D935F8023BC360E38F48
:102FB000023B9BB2E387E38F9BB2002BBBD023681D
:102FC0009A68920712D5E28F92B2012A0BD935F88E
:102FD000022BDA60EBE72B780373E38F013B9BB2A4
:102FE000E3870135E7E72A781A73F6E7002EC0D0A9
:102FF000731CE0D0FEF79CFFC01B8642DBD8B8E70D
:10300000202323669EE70220B4E70220B8E770473A
:10301000036830B559689A6802F04105012D85B002
:10302000044605D14D0603D5C36C984705B030BDA5
:10303000950704D5080602D5236D2046F5E712F45E
:10304000B07FF3D08D06F1D550060FD594F85D0012
:1030500003284FF0000541D0206E40F004002066A8
:103060000095D868009098680090009895060CD557
:10307000206E40F0010020660020029098680290C7
:10308000186820F0400018600298D00508D5226E1C
:1030900042F008022266002203929A680392039A81
:1030A000226E002AC2D05A6822F0E0025A60012241
:1030B00084F85D208A0718D05A68A06D22F00302B8
:1030C0005A6018B10B4B4363FEF7FDFF606D00289B
:1030D000ACD0084B4363FEF7F6FFA7E70195DA682B
:1030E00001929B680193019BA0E72046FFF78FFFA9
:1030F0009CE700BFF930000808B5406A0023A0F83B
:103100004630C387FFF783FF08BD03681A6822F4BF
:1031100090721A609A6822F001029A60202380F867
:103120006A30704770477047704708B5406A00239F
:10313000A0F85A30A0F85230FFF7F6FF08BD0000A3
:1031400038B5044605682169A268C36928680A433E
:1031500061690A4377491A4301400A432A606A6851
:10316000E168206A22F440520A436A60A968A269B1
:1031700021F4306102430A43AA606F4A954212D19A
:1031800002F558426D49126B02F00302B3F5004F8D
:103190008A5C66D0082A19D8DFE802F0C2929E182D
:1031A000A9181818AC00664A954224D102F5E632F7
:1031B000126B02F44032B2F5803F00F0A08007D8D5
:1031C000002A00F0AA80B3F5004F76D0012038BD68
:1031D000B2F5003F00F09980B2F5403FF3D1B3F56E
:1031E000004F79D16068430803F5740303F5105369
:1031F000B3FBF0F354E0534A95420ED102F5E432AA
:10320000126B02F44022B2F5802F78D0D8D9B2F5F3
:10321000002F7AD0B2F5402FE0E74B4A95420ED10D
:1032200002F5E232126B02F44012B2F5801F66D052
:10323000C6D9B2F5001F68D0B2F5401FCEE7434AA9
:103240009542C0D102F5E032126B02F44002B2F5B1
:10325000800F54D0B4D9B2F5000F56D0B2F5400F5C
:10326000BCE7082A29D801A353F822F091320008BC
:10327000B5320008E5310008BB320008053300080C
:10328000BB320008BB320008BB3200081133000813
:10329000FFF7B4FB61684A0802EB4003B3FBF1F3AC
:1032A0009BB2002023F00F022168C3F342031343B3
:1032B000CB6038BDFFF7BAFBECE701200023F1E754
:1032C000FFF7B4FB636800EB5300B0FBF3F01A4B5D
:1032D00080B2D860002038BD6268530803F5F4035B
:1032E00003F59053B3FBF2F39BB2EB60F2E7FFF709
:1032F000AFFA17E06268530803F50043F2E7B3F54D
:10330000004FF4D1FFF7A4FAC4E7B3F5004FF1D1B1
:103310006068430803F580336AE7B3F5004FB7D020
:10332000FFF76CFB636800EB5300B0FBF3F080B277
:10333000E860CFE7F369FFEF00380140287A020820
:103340000044004000480040004C00400050004055
:10335000436ADA0710B506D50168846A4A6822F420
:10336000003222434A609C0706D50168C46A4A6855
:1033700022F4803222434A60590706D50168046B63
:103380004A6822F4802222434A601A0706D501685F
:10339000446B4A6822F4004222434A60DC0606D5A8
:1033A0000168846B8A6822F4805222438A609906FD
:1033B00006D50168C46B8A6822F4005222438A60F1
:1033C0005A060FD50168046C4A6822F48012224321
:1033D000B4F5801F4A6005D14A68446C22F4C002EB
:1033E00022434A601B0606D50268816C536823F4A9
:1033F00000230B43536010BD2DE9F041069D0446A8
:103400000F46164698462168CA6937EA02030CBF80
:1034100001220022B24202D00020BDE8F0816B1CE4
:10342000F2D09DB923681A6822F4D0721A609A68A3
:1034300022F001029A60202384F8693084F86A300F
:10344000002384F868300320BDE8F081FEF770FDAA
:10345000A0EB08008542D6D2E4E773B50446002607
:10346000C666FEF765FD23681B681A07054617D474
:1034700023681B685B070AD56FF07E430093002228
:103480002B464FF480012046FFF7B6FFA0B920235A
:10349000002084F8693084F8680084F86A300CE011
:1034A0006FF07E430093324603464FF400112046EE
:1034B000FFF7A2FF0028DBD0032002B070BD10B5DB
:1034C000044660B390F8693003F0FF021BB980F83E
:1034D000682000F0EBFE2268242384F8693013682A
:1034E00023F0010313602046FFF72AFE012816D0BF
:1034F000636A13B12046FFF72BFF23685A6822F452
:1035000090425A609A6822F02A029A601A6842F041
:10351000010220461A60BDE81040FFF79EBF01205F
:1035200010BD90F86930212B27D1B0F852300268D5
:103530009BB24BB9116821F080011160116841F014
:1035400040011160002070478368B3F5805FC36C51
:103550000ED1016961B933F8021BC1F3080111856D
:10356000C364B0F85230013B9BB2A0F85230E9E797
:10357000591CC1641B781385F3E70220704701686A
:1035800008B50B6823F040030B60202380F86930F6
:10359000FFF7C8FD002008BD90F86A30222B10B557
:1035A000036829D1998C8368B0F85C20B3F5805FFB
:1035B00002EA0102436D1BD10169C9B923F8022B4C
:1035C0004365B0F85A40013CA4B2A0F85A406CB927
:1035D00003681A6822F490721A609A6822F0010255
:1035E0009A60202380F86A30FFF79DFD002010BD0F
:1035F000591C41651A70E4E79A6942F008029A6121
:10360000022010BD0268D369116870B513F00F0570
:10361000044607D19E0605D58E0603D5BDE8704049
:10362000FFF7BABF9068002D5CD010F0010502D101
:1036300011F4907F56D0D80707D5CE0505D50120C7
:103640001062E06E40F00100E066980706D52DB1EB
:1036500002201062E06E40F00400E0665E0706D5CE
:103660002DB104201062E06E40F00200E066180701
:1036700007D58E0600D425B108201062E26E024301
:10368000E266E26E002A50D0980604D58A0602D57A
:103690002046FFF781FFE36E1B07204604D4236812
:1036A0009D6815F0400519D0FFF72FFD23689A6833
:1036B00056060FD59A68606E22F040029A6048B1B3
:1036C0001A4B4363FEF7FFFC78B3606EBDE87040B1
:1036D000436B18472046FFF727FD70BDFFF724FD19
:1036E000E56670BDDD020ED546020CD54FF48013A1
:1036F0001362202384F86930204684F86A30BDE8DC
:10370000704000F015B81D0606D5080604D5204601
:10371000BDE87040FFF705BF5A0606D54B0604D535
:103720002046BDE87040FFF72ABF70BD2B3100086E
:103730007047000080B582B000AF786001224FF47E
:1037400080510D48FEF7FCFD00224FF480714FF0D0
:103750009040FEF7F5FD0A20FEF7F0FB01224FF442
:1037600080714FF09040FEF7EBFD0A20FEF7E6FB7C
:1037700000BF0837BD4680BD0004004880B582B058
:1037800000AF78600B46FB7000224FF480510D486B
:10379000FEF7D6FD00224FF480410A48FEF7D0FD27
:1037A000F91C4FF0FF3301220748FFF772FB01229B
:1037B0004FF480510348FEF7C3FD00BF0837BD46F4
:1037C00080BD00BF00040048501D002080B584B0BB
:1037D00000AFF860B9607A6000224FF480510D4864
:1037E000FEF7AEFD01224FF480410A48FEF7A8FD26
:1037F0007B689AB24FF0FF33B9680748FFF749FB7F
:1038000001224FF480510348FEF79AFD00BF1037A4
:10381000BD4680BD00040048501D002080B582B028
:1038200000AF78607868FFF785FF6420FEF786FBBD
:10383000AE217868FFF7A2FF20217868FFF79EFF8E
:1038400000217868FFF79AFFB0217868FFF796FFAC
:10385000C8217868FFF792FF00217868FFF78EFF94
:1038600010217868FFF78AFF40217868FFF786FF0C
:1038700081217868FFF782FFFF217868FFF77EFFDC
:10388000A1217868FFF77AFFA6217868FFF776FF15
:10389000A8217868FFF772FF3F217868FFF76EFF75
:1038A000A4217868FFF76AFFD3217868FFF766FFE5
:1038B00000217868FFF762FFD5217868FFF75EFF87
:1038C000F0217868FFF75AFFD9217868FFF756FF93
:1038D00022217868FFF752FFDA217868FFF74EFF60
:1038E00012217868FFF74AFFDB217868FFF746FF6F
:1038F00020217868FFF742FF8D217868FFF73EFFAF
:1039000014217868FFF73AFFAF217868FFF736FF98
:103910000021786800F010F8786800F031F87B68D2
:1039200000229A807B680022DA807B6801225A722A
:1039300000BF0837BD4680BD80B485B000AF786059
:103940000B46FB700023FB60FB68B3F5806F0ED263
:10395000FB78002B01D1002100E0FF21074AFB6822
:1039600013440A461A70FB680133FB60ECE700BFA2
:103970001437BD465DF8047B704700BFF00200209D
:1039800080B584B000AF78600023FB73FB7B072B0E
:103990001BDCFB7B503BDBB219467868FFF7EEFE81
:1039A00000217868FFF7EAFE10217868FFF7E6FE4D
:1039B000FB7BDB01074A1344802219467868FFF736
:1039C00005FFFB7B0133FB73E0E700BF1037BD460B
:1039D00080BD00BFF002002080B483B000AF7860EB
:1039E000084611461A460346FB700B46BB70134649
:1039F0007B70FB787F2B48DCBB783F2B45DC7B68FA
:103A00001B7A002B06D07B78002B0CBF01230023F0
:103A1000DBB27B707B78012B1AD1FA78BB78DB089C
:103A2000D8B20346DB011344F9780246D2010A44B6
:103A300019498A5C51B2BA7802F00702012000FAF3
:103A400002F252B20A4352B2D1B2134AD1541DE02B
:103A5000FA78BB78DB08D8B20346DB011344F97867
:103A60000246D2010A440C498A5C51B2BA7802F08B
:103A70000702012000FA02F252B2D24352B20A40C7
:103A800052B2D1B2044AD15400E000BF0C37BD4657
:103A90005DF8047B704700BFF002002080B588B05D
:103AA00000AFF8600846394681E80C000346FB7217
:103AB000FB7A1F2B02DDFB7A7E2B01DD00236FE0FA
:103AC000FB689B881A463B781344802B06DCFB6816
:103AD000DB881A467B781344402B01DD00235FE02E
:103AE0000023FB617B781A46FB699A424FD97A68BA
:103AF000FB7A203B797801FB03F31946FB690B4401
:103B00005B0013441B887B610023BB613B781A4632
:103B1000BB699A4237D97A69BB6902FA03F303F4A5
:103B20000043002B13D0FB689B88DAB2BB69DBB281
:103B30001344D9B2FB68DB88DAB2FB69DBB2134409
:103B4000DAB297F82830F868FFF746FF17E0FB680D
:103B50009B88DAB2BB69DBB21344D9B2FB68DB885D
:103B6000DAB2FB69DBB21344DAB297F82830002BE3
:103B70000CBF01230023DBB2F868FFF72DFFBB6900
:103B80000133BB61C2E7FB690133FB61AAE7FB6854
:103B90009A883B789BB213449AB2FB689A80FB7A6E
:103BA00018462037BD4680BD80B586B002AFF860AC
:103BB000B960394681E80C00BB681B78002B1AD02D
:103BC000BB6819783B7E00933B460CCBF868FFF747
:103BD00065FF03461A46BB681B789A4214BF01234F
:103BE0000023DBB2002B02D0BB681B7805E0BB686A
:103BF0000133BB60E0E7BB681B7818461037BD4651
:103C000080BD80B483B000AF78600B46FB70134674
:103C1000BB70FB789AB27B689A80BB789AB27B685B
:103C2000DA8000BF0C37BD465DF8047B70470000AA
:103C300080B483B000AF7860044A7B681A607B6808
:103C400018460C37BD465DF8047B7047C04B020830
:103C500080B483B000AF7860044A7B681A607B68E8
:103C600018460C37BD465DF8047B7047C04B020810
:103C700080B582B000AF78607868FFF7E9FF7868B8
:103C800000F0A7FB7B6818460837BD4680BD0000E2
:103C900080B582B000AF786039607B68012B0CD1B1
:103CA0003B684FF6FF72934207D1064800F022FCB2
:103CB000054A0649034800F08EFB00BF0837BD46A1
:103CC00080BD00BFEC020020000000200D4600086F
:103CD00080B500AF4FF6FF710120FFF7D9FF80BD1F
:103CE00080B582B000AF786039607B68012B0CD161
:103CF0003B684FF6FF72934207D1064800F0FAFB8B
:103D0000054A0649034800F066FB00BF0837BD4678
:103D100080BD00BFF0060020000000200D46000816
:103D200080B500AF4FF6FF710120FFF7D9FF80BDCE
:103D3000124B07B55A6942F001025A615B690022D1
:103D400003F00103114601930F20019BFEF71CF9BC
:103D50000F20FEF74DF9002211461020FEF714F94E
:103D60001020FEF745F9002211461120FEF70CF94C
:103D70001120FEF73DF903B05DF804FB001002408E
:103D800070B588B01422002103A819F039FF1D4B2B
:103D90001D4E5A6942F400325A615A6902F40032E7
:103DA0000192019A5A6942F480225A615B6903F4D4
:103DB00080230293304600224FF4A041029BFEF77D
:103DC000BFFA00224FF480714FF09040FEF7B8FA2E
:103DD00000244FF4A043012503A930460393049522
:103DE00005940694FEF7DCF94FF4807303A94FF0B5
:103DF00090400393049505940694FEF7D1F908B01A
:103E000070BD00BF001002400004004880B582B0C1
:103E100002AFFEF76FF800F04DF8FFF7B1FFFFF7C4
:103E200087FF00F0E5F800F023FA1F48FFF7F6FCE3
:103E300001211D48FFF780FD1C4B002200920CCB96
:103E40001B491948FFF7B0FE0F2200211648FFF763
:103E5000D8FE164B002200920CCB15491248FFF7F2
:103E6000A3FE1E2200211048FFF7CBFE0F4B0022BD
:103E700000920CCB0E490C48FFF796FE2D22002134
:103E80000948FFF7BEFE094B002200920CCB0849FF
:103E90000548FFF789FE4FF47A70FEF74FF80248A5
:103EA000FFF76EFDFEE700BFF80600200C000020C3
:103EB000E079020880B5A6B000AF07F170032822B0
:103EC0000021184619F09CFE07F15C0300221A60DD
:103ED0005A609A60DA601A613B1D58220021184628
:103EE00019F08EFE02233B670123FB671023C7F8FE
:103EF00080300023C7F8883007F170031846FEF7BA
:103F000025FA0346002B14BF01230023DBB2002B4C
:103F100001D000F031F80F23FB6500233B6600233E
:103F20007B664FF48063BB660023FB6607F15C038E
:103F300000211846FEF7B8FC0346002B14BF0123EE
:103F40000023DBB2002B01D000F016F802237B60C7
:103F500000233B613B1D1846FEF780FD0346002B06
:103F600014BF01230023DBB2002B01D000F004F8C2
:103F700000BF9837BD4680BD80B400AF00BFBD46CE
:103F80005DF8047B7047000080B582B000AF7860B8
:103F900039607B68012B14D13B684FF6FF72934266
:103FA0000FD10A4800F0A6FA094A0A49074800F06A
:103FB00012FA0948FFF73CFE054A0849064800F096
:103FC0000AFA00BF0837BD4680BD00BFF4060020D6
:103FD000000000200D460008F8060020513C0008B3
:103FE00080B500AF4FF6FF710120FFF7CDFF80BD18
:103FF0001048114908B54FF482724FF400434FF452
:10400000E06E80E80E4000234FF4007203614361CC
:104010008261C361036243628362072203630823F0
:10402000C2624363FEF7E0FE18B1BDE80840FFF747
:10403000A3BF08BD501D00200038004030B5054624
:1040400089B01422002103A819F0DAFD2A68214B57
:104050009A423DD103F5EC331F48DA691F4C42F414
:104060008042DA61DA6902F480420192019A5A6967
:1040700042F480225A615B6903F480230293029B1D
:104080004FF420430393022304930323069303A9CD
:1040900005230793FEF784F8114A102384E80C00E7
:1040A000204600238022A360E26023616361A36154
:1040B000E361FDF7E1FF08B1FFF75EFF0022242076
:1040C0006C6511466562FDF75FFF2420FDF790FFE8
:1040D00009B030BD0038004000040048B41D002085
:1040E000580002400A4B9A6942F001029A619A69AB
:1040F00082B002F001020092009ADA6942F0805226
:10410000DA61DB6903F080530193019B02B07047D1
:10411000001002407047FEE7FEE7FEE7FEE770474B
:1041200070477047FDF7F8BE0148FDF7F0BF00BFCC
:10413000B41D00200148FDF7EABF00BF681E002043
:104140000148FDF7E4BF00BFAC1E00200148FEF7A8
:104150005FBF00BF501D00200148FFF753BA00BFEA
:10416000F81D00200120704708B518F0E3FF162362
:1041700003604FF0FF3008BD08B518F0DBFF1623D1
:104180000360FEE770B50E4615460C46A31B9D4224
:1041900001DC284670BDAFF3008004F8010BF5E7A1
:1041A00070B50E4615460C46A31B9D4201DC284601
:1041B00070BD14F8010BAFF30080F5E708B50A4BAA
:1041C0001968024609B90949196018686946024424
:1041D0008A4206D918F0AEFF0C2303604FF0FF307F
:1041E00008BD1A6008BD00BF08070020F41E0020AB
:1041F0004FF0FF3070474FF400534B600020704782
:1042000001207047002070471549D1F8883043F4E9
:104210007003C1F88830134B1A6842F001021A602B
:104220005868114A02405A601A6822F0847222F4D7
:1042300080321A601A6822F480221A605A6822F4C6
:10424000FE025A60DA6A22F00F02DA62186B074A3D
:1042500002401A6300229A604FF000638B6070473F
:1042600000ED00E0001002400CC07FF8CCFC00FF25
:1042700008B50C480C4B4FF4165E80E808400C2241
:1042800000238360C360036142618361C361036291
:104290004362FFF714F918B1BDE80840FFF76CBEA0
:1042A00008BD00BFF81D00200044004030B50546A1
:1042B00089B01422002103A819F0A2FC2A682B4B14
:1042C0009A4251D103F5E633294CDA6942F40032BF
:1042D000DA61DA6902F400320192019A5A6942F411
:1042E00000325A615B6903F400330293029B0C2392
:1042F000039302230493032306934FF09040072374
:1043000003A90793FDF74CFF1A4B2360802200237B
:1043100020466360A360E26023616361A361E3619F
:10432000FDF7AAFE08B1FFF727FE134A6C66656227
:10433000124C102384E80C00204600238022A36046
:10434000E26023616361A361E361FDF795FE08B15B
:10435000FFF712FE002226202C6611466562FDF74B
:1043600013FE2620FDF744FE09B030BD0044004096
:10437000681E00206C00024080000240AC1E00203D
:10438000DFF834D0002103E00C4B5B58435004317C
:104390000B480C4B42189A42F6D30B4A02E000231A
:1043A00042F8043B094B9A42F9D3FFF72DFF19F06D
:1043B0004DFAFFF72BFDFEE700000120B8B7020819
:1043C00000000020D0020020D0020020F41E0020B7
:1043D000FEE719F08DBB0B460146184618F09CBE4F
:1043E0007FB5102302930368002415469E6900944C
:1043F0006B468DF8044003941268B0479DF8043072
:1044000003F00603062B03BF009B2B600120204610
:1044100004B070BD009890420CBF06200120704788
:1044200010B5034B0360044600F04BF8204610BD66
:104430007C7A020810B50446FFF7F2FF20460821F7
:104440000DF02AFD204610BD38B515461C4600F07B
:104450003BF820B10823E36006232560237138BDB3
:104460002DE9F04105460C4616461F4600F02CF893
:1044700048B9032F07D823683246294620465B698E
:10448000BDE8F0411847BDE8F0812DE9F041069EF6
:10449000099C9846089B9E420746154603D10799FA
:1044A00000F012F858B94146384600F00DF818B13E
:1044B000012326602571A3710020BDE8F08165719C
:1044C000FAE7704700207047814208B50ED0406877
:1044D00003782A2B0CD049680B782A2B08BF0131AE
:1044E000FBF7CEFEB0FA80F0400908BD012008BD00
:1044F000002008BD2DE9F843334D2B685A1C0746B0
:104500002A60002B5CD1314C314B3248DFF8F0800F
:10451000DFF8F090304E01221A70236899680DF090
:104520004DF923682D4859680DF048F923682C4847
:10453000D9680DF043F92749404600F0FBF82749B8
:1045400048460CF06DFF2649304600F0F3F8244948
:10455000244800F0EFF83369C6F8748043F4005340
:1045600033612368C9F8788099681F481F4EDFF8C7
:1045700098800DF033F923681D4859680DF02EF925
:1045800023681C48D9681C4C0DF028F916493046A0
:1045900000F02AF9164940460CF08EFF15492046D6
:1045A00000F022F91349154800F01EF92369C8F8F4
:1045B000786043F4005323612B68666701332B60F6
:1045C0003846BDE8F88300BF4C0D0020B80000203D
:1045D000340000205C0700208C0800200C0700201D
:1045E0003407002018090020D4070020E40B002025
:1045F00084070020AC070020C40A0020540B0020D0
:10460000A4090020FC070020300A00200D4A13688E
:10461000591E022B10B50446116011D10A4800F052
:10462000BFF80A4800F0BCF8094800F0B9F809489A
:1046300000F010F9084800F00DF9084800F00AF9F8
:10464000204610BD4C0D0020A40900208C0800203D
:1046500018090020E40B0020C40A0020540B00209D
:1046600010B5054B03601433044640F8043F05F0D1
:10467000BDFD204610BD00BFCC7A0208036853F888
:104680000C2C064B10B5841883502046143340F888
:10469000043F05F0ABFD204610BD00BFCC7A0208F8
:1046A00010B5054B03601433044640F8043F05F091
:1046B000A7FD204610BD00BFFC7A0208036853F82E
:1046C0000C2C064B10B5841883502046143340F848
:1046D000043F05F095FD204610BD00BFFC7A02089E
:1046E00010B50446FFF7BCFF2046FFF772FE2046D8
:1046F00010BD036853F80C3C1844F1E710B50446AC
:10470000FFF7CEFF2046FFF764FE204610BD03688A
:1047100053F80C3C1844F1E70B6810B504460360ED
:1047200053F80C0C4B6823501146204405F0D0FD83
:10473000204610BD70B5051D044628460E4605F0FE
:1047400093FD054B2360143328466360314605F022
:10475000BFFD204670BD00BFCC7A020810B50446EC
:1047600079B91368236071B953F80C3C234461B9DB
:1047700052681A608B0702D5201D05F037FD2046D0
:1047800010BD034BEEE70423F0E7024AF1E700BF58
:10479000CC7A0208E07A02080A460021FFF7DEBF61
:1047A000036853F80C3C034410B50446986F50B1AD
:1047B0000CF0DEF9013006D1236853F80C0C01210E
:1047C000204405F04BFD204610BD0B6810B5044693
:1047D000036053F80C0C4B6823501146204405F03D
:1047E000DCFD204610BD000070B5051D04462846BE
:1047F0000E4605F09DFD054B23601433284663608B
:10480000314605F0CAFD204670BD00BFFC7A0208A3
:1048100010B5044679B91368236071B953F80C3C9C
:10482000234461B952681A608B0702D5201D05F038
:10483000E7FC204610BD034BEEE70423F0E7024AF5
:10484000F1E700BFFC7A0208107B02080A4600214B
:10485000FFF7DEBF036853F80C3C034410B5044671
:10486000D86F50B10CF0B2F9013006D1236853F87B
:104870000C0C0121204405F055FD204610BD0846D2
:10488000704708467047000010B5084B044640F8D2
:10489000083B0DF045FE237B1BB1A06908B10DF06C
:1048A00033F820460DF08BFB204610BDD87B020864
:1048B00010B50446FFF7E8FF2046FFF78AFD2046C3
:1048C00010BD10B502981446521A19F074F920461A
:1048D00010BD10B518461446521A19F06CF920464E
:1048E00010BD000010B5064B044640F8083B0DF023
:1048F00017FE044B236020460DF061FB204610BDDF
:10490000087C0208CC7C020810B50446FFF7EAFFD9
:104910002046FFF75EFD204610BDF0B50546C1B04C
:1049200000240DF804400134B4F5807FF9D12B68E0
:1049300005F11D06DF6940AA334669462846B84797
:1049400001232B7722463146684619F025F908B134
:1049500002232B7741B0F0BD003118BF0121074B76
:1049600010B54160036004460DF044FB0023A060D5
:10497000237320460BF089FF204610BD087C0208F7
:104980008368586970478368986970478368586B73
:10499000704783689B6B0020DAB262F30700C3F3B1
:1049A000072262F30F20C3F3074262F317401B0E86
:1049B00063F31F6082B002B070478368DB6B002036
:1049C000DAB262F30700C3F3072262F30F20C3F3E6
:1049D000074262F317401B0E63F31F6082B002B000
:1049E000704783685869704783689869704783681F
:1049F000586B704783689B6B0020DAB262F3070044
:104A0000C3F3072262F30F20C3F3074262F3174098
:104A10001B0E63F31F6082B002B070478368DB6BCC
:104A20000020DAB262F30700C3F3072262F30F201B
:104A3000C3F3074262F317401B0E63F31F6082B09B
:104A400002B070478368586A70478368986A7047F5
:104A5000002070470020704770470020914204D228
:104A600051F8043B03EB7060F8E770470D4B10B54D
:104A7000036090F86C3004467BB1806808B10CF09C
:104A800043FFE06908B10CF03FFF606A08B10CF029
:104A90003BFFE06A08B10CF037FF20460DF08FFABB
:104AA000204610BDD87E02080D4B10B5036090F86B
:104AB0006C3004467BB1806808B10CF025FFE069DA
:104AC00008B10CF021FF606A08B10CF01DFFE06A2C
:104AD00008B10CF019FF20460DF071FA204610BD08
:104AE000E87E020810B5034B036004460DF067FA38
:104AF000204610BD6C7E020810B5034B03600446CF
:104B00000DF05DFA204610BD847E02080B4B10B5F7
:104B1000036090F8243104465BB1806808B10CF062
:104B2000F3FE606908B10CF0EFFEE06908B10CF02B
:104B3000EBFE20460DF043FA204610BDF87E020839
:104B400010B5034B036004460DF039FA204610BD42
:104B5000307D020810B5034B036004460DF02FFAB8
:104B6000204610BD6C7D020810B5034B036004465F
:104B70000DF025FA204610BD9C7D020810B5034BB0
:104B8000036004460DF01BFA204610BD9C7E02080F
:104B900010B5034B036004460DF011FA204610BD1A
:104BA000B07E020810B50446FFF760FF2046FFF70D
:104BB00010FC204610BD10B50446FFF775FF2046D7
:104BC000FFF707FC204610BD10B50446FFF78AFF2B
:104BD0002046FFF7FEFB204610BD10B50446FFF748
:104BE0008BFF2046FFF7F5FB204610BD10B50446AD
:104BF000FFF78CFF2046FFF7ECFB204610BD10B5F9
:104C00000446FFF79DFF2046FFF7E3FB204610BD5B
:104C100010B50446FFF79EFF2046FFF7DAFB20465B
:104C200010BD10B50446FFF79FFF2046FFF7D1FBEC
:104C3000204610BD10B50446FFF7A0FF2046FFF741
:104C4000C8FB204610BD10B50446FFF7A1FF204663
:104C5000FFF7BFFB204610BD13B58B6801AA99680A
:104C600004460BF0D1FB204602B010BD13B58B6893
:104C700001AA996804460BF0C7FB204602B010BD9C
:104C800013B58B6801AA996804460BF0BDFB20465A
:104C900002B010BD13B58B6801AAD96904460CF0A7
:104CA00035FB204602B010BD13B58B6801AA596AC6
:104CB00004460CF02BFB204602B010BD13B58B68E8
:104CC00001AAD96A04460CF021FB204602B010BDAF
:104CD00013B58B6801AAD96904460CF017FB20466E
:104CE00002B010BD13B58B6801AA596A04460CF0D6
:104CF0000DFB204602B010BD13B58B6801AAD96A1E
:104D000004460CF003FB204602B010BD13B58B68BF
:104D100001AA596904460CF0F9FA204602B010BD08
:104D200013B58B6801AAD96904460CF0EFFA204646
:104D300002B010BD10B5054B044640F8083B0DF01D
:104D4000EFFB20460DF03BF9204610BD247E020803
:104D500010B50446FFF7EEFF2046FFF73AFB20466A
:104D600010BD000010B5054B044640F8083B0DF09F
:104D7000D7FB20460DF023F9204610BDB07C020879
:104D800010B50446FFF7EEFF2046FFF722FB204652
:104D900010BD000038B50D4B0360056904460DF0E9
:104DA00033F9854203D015B128460CF0ADFDA0685B
:104DB00010B103685B68984704F10C000DF0B0FB7C
:104DC00020460DF0FCF8204638BD00BFAC7D02083F
:104DD00010B50446FFF7DEFF2046FFF7FAFA20463B
:104DE00010BD2DE9FF411C46804603AB02A80CF024
:104DF000A3FA214601AB0A9A03A80CF09DFA029D82
:104E0000039C55F80C7C54F80C6C05EB870704EBFD
:104E100086062246294640460EF093F9F0B9284608
:104E20001BF008FF05EB800520461BF003FFAF4297
:104E300004EB80040DD1341B18BF4FF0FF3403A8DE
:104E40000BF0EEFF02A80BF0EBFF204604B0BDE82C
:104E5000F081A64204D004350434DAE70446EEE7D4
:104E60000124ECE72DE9F34791461C46294B0360EA
:104E700022466B460646884601A849460CF05CFA75
:104E8000A4EB0904244B019DDFF88CA055F80C7CA1
:104E900064109C4294BFA0004FF0FF300CF0BEFDA8
:104EA00005EB8707814623462A46494640460EF0D1
:104EB00053F9844211D8441C48460CF025FD544552
:104EC00094BFA0004FF0FF300CF0A8FD23468146B0
:104ED00001462A4640460EF03FF902464946304612
:104EE0000CF02CF928461BF0A5FE05EB8005AF421F
:104EF00005D00021304604350CF0ADF9D3E7484623
:104F00000CF002FD01A80BF08BFF304602B0BDE8AB
:104F1000F08700BF5C0D0020FEFFFF1F0A2807D8A6
:104F20002F2917D93030814214D2A1F130007047B7
:104F3000A1F1300009280FD9A1F16103052B02D896
:104F4000A1F157007047A1F14103052B02D8A1F14F
:104F5000370070474FF0FF307047000008B4F3B5DA
:104F60000F460420002118F04FFD16490546FBF7B7
:104F700087F920B32846FBF78DF9461C30460CF024
:104F80004DFD29463246044618F015FE0D49042011
:104F900018F03AFD08AA0799019238461BF024F848
:104FA000054634B12146042018F02EFD20460CF0B1
:104FB000ABFC284602B0BDE8F04001B070470446A3
:104FC000E8E700BF1E7F020813460A4611B11968C0
:104FD0001BF0B4BF084670470AB11BF0BFBF704753
:104FE00013460A4611B119461BF0BEBF70470000B8
:104FF00000310B4A026018BF01210022416082602B
:10500000C260027442618261C26102624262826273
:10501000C262026342638263C26380F86C2070479D
:10502000D87E020800310B4A026018BF012100221D
:1050300041608260C260027442618261C261026248
:1050400042628262C262026342638263C26380F828
:105050006C207047E87E020810B5003218BF0122AC
:105060004260054B036000220446816011460DF04A
:10507000DFFF204610BD00BFF07D020803689B687B
:1050800018470368DB68184710B50B6804461B69AE
:105090009847204610BD10B50B6804465B699847D9
:1050A000204610BD10B50B6804469B699847204602
:1050B00010BD10B50B680446DB699847204610BD4B
:1050C00003681B6A1847036807B55B6A984703467D
:1050D000DAB2002062F30700C3F3072262F30F2065
:1050E000C3F3074262F317401B0E63F31F6003B064
:1050F0005DF804FB036807B59B6A98470346DAB27C
:10510000002062F30700C3F3072262F30F20C3F30A
:10511000074262F317401B0E63F31F6003B05DF894
:1051200004FB000010B5003218BF01224260054B9D
:10513000036000220446816011460DF033FF2046D3
:1051400010BD00BFBC7D020803689B681847036858
:10515000DB68184710B50B6804461B699847204662
:1051600010BD10B50B6804465B699847204610BD1A
:1051700010B50B6804469B699847204610BD10B5D2
:105180000B680446DB699847204610BD03681B6A1C
:105190001847036807B55B6A98470346DAB20020F0
:1051A00062F30700C3F3072262F30F20C3F3074241
:1051B00062F317401B0E63F31F6003B05DF804FB3E
:1051C000036807B59B6A98470346DAB2002062F38A
:1051D0000700C3F3072262F30F20C3F3074262F311
:1051E00017401B0E63F31F6003B05DF804FBF0B5BE
:1051F00089B006AC84E80C00139A0B680592129AE9
:105200000492119A03929DF8402002920EAA05463C
:105210000E4692E803008DE8030028469F68314659
:1052200094E80C00B847284609B0F0BDF0B589B045
:1052300006AC84E80C00139A0B680592129A04924B
:10524000119A03929DF8402002920EAA05460E463E
:1052500092E803008DE803002846DF68314694E8B1
:105260000C00B847284609B0F0BD70B586B004AC54
:1052700084E80C000C9A02920B9A01920B689DF83C
:10528000282000929E6894E80C000546B047284606
:1052900006B070BD70B586B004AC84E80C000D9A01
:1052A00003920C9A02920B9A01920B689DF82820A7
:1052B0000092DE6894E80C000546B047284606B028
:1052C00070BD00000031094A026018BF01210022B0
:1052D00041608260C260027442618261C2610262A6
:1052E0004262826280F82421704700BFF87E020883
:1052F00010B5003218BF0122044B4260044603601F
:10530000816000210DF02AFD204610BD0C7D0208B1
:1053100003689B6818470368DB68184710B50B687B
:1053200004461B699847204610BD10B50B6804461B
:105330005B699847204610BD10B50B6804469B6911
:105340009847204610BD0000003218BF0122074BCD
:1053500010B542600360816004460CF055FE0021E8
:10536000206120460DF07EFB204610BDAC7D02087A
:1053700083689A680A60DB684B60704783681A69C3
:105380000A605B694B60704783689A690A60DB69F1
:105390004B6070478368DA6A0A601A6B4A605A6B1E
:1053A0008A609A6BCA60DA6B0A611A6C4A615B6C3C
:1053B0008B61704783689A6C0A60DA6C4A601A6D78
:1053C0008A605A6DCA609A6D0A61DA6D4A611B6E15
:1053D0008B61704783685A6E0A609A6E4A60DA6E13
:1053E0008A601A6FCA605A6F0A619A6F4A61DA6FEF
:1053F0008A61D3F88020CA61D3F884200A62D3F886
:1054000088204A62D3F88C208A62D3F89030CB622D
:1054100070478368D3F894200A60D3F898204A60D4
:10542000D3F89C208A60D3F8A020CA60D3F8A420C7
:105430000A61D3F8A8204A61D3F8AC208A61D3F876
:10544000B020CA61D3F8B4200A62D3F8B8204A6207
:10545000D3F8BC208A62D3F8C030CB6270470368AF
:105460009B681847F0B589B006AC84E80C00129A26
:105470000B680492119A0392109A02920EAA0546A2
:105480000E4692E803008DE803002846DF683146A7
:1054900094E80C00B847284609B0F0BDF0B589B0D3
:1054A00006AC84E80C00129A0B680492119A0392DD
:1054B000109A02920EAA05460E4692E803008DE865
:1054C000030028461F69314694E80C00B847284677
:1054D00009B0F0BDF0B589B006AC84E80C00129AB2
:1054E0000B680492119A0392109A02920EAA054632
:1054F0000E4692E803008DE8030028465F693146B6
:1055000094E80C00B847284609B0F0BDF0B589B062
:1055100006AC84E80C00129A0B680492119A03926C
:10552000109A02920EAA05460E4692E803008DE8F4
:10553000030028469F69314694E80C00B847284686
:1055400009B0F0BDF0B589B006AC84E80C00129A41
:105550000B680492119A0392109A02920EAA0546C1
:105560000E4692E803008DE803002846DF693146C5
:1055700094E80C00B847284609B0F0BD003110B5DA
:1055800018BF0121044B4160036004460CF032FD5A
:10559000A060204610BD00BF247E020803689B68FF
:1055A000184773B5079E01960D68069E0096ED6834
:1055B0000446A847204602B070BD03681B6918471F
:1055C000003110B518BF0121044B4160036004464F
:1055D0000CF010FDA060204610BD00BFB07C02089A
:1055E00010B40468A468A4465DF8044B604738B55D
:1055F0000D680446ED68A847204638BD10B504463E
:105600000A480CF063FD23685A689B68984202D2EE
:1056100052F8200008B90AF0E5FF0023044A0549C2
:105620000CF09AF908B90CF06CF910BD780C002058
:10563000AC7B02086C8F020810B504460A480CF0D7
:1056400045FD23685A689B68984202D252F82000B0
:1056500008B90AF0C7FF0023044A05490CF07CF999
:1056600008B90CF04EF910BDC80C002020800208CB
:105670006C8F020810B504460A480CF027FD236819
:105680005A689B68984202D252F8200008B90AF082
:10569000A9FF0023044A05490CF05EF908B90CF093
:1056A00030F910BDC00C0020F47F02086C8F020896
:1056B00010B504460A480CF009FD23685A689B6837
:1056C000984202D252F8200008B90AF08BFF00235A
:1056D000044A05490CF040F908B90CF012F910BD64
:1056E000C40C0020E87F02086C8F020810B5044645
:1056F0000A480CF0EBFC23685A689B68984202D277
:1057000052F8200008B90AF06DFF0023044A054949
:105710000CF022F908B90CF0F4F810BDD40C0020FC
:10572000407F02086C8F020810B504460A480CF04E
:10573000CDFC23685A689B68984202D252F8200038
:1057400008B90AF04FFF0023044A05490CF004F998
:1057500008B90CF0D6F810BDD80C0020207F020844
:105760006C8F020810B504460A480CF0AFFC2368A1
:105770005A689B68984202D252F8200008B90AF091
:1057800031FF0023044A05490CF0E6F808B90CF093
:10579000B8F810BDBC0C0020607F02086C8F0208B6
:1057A00010B504460A480CF091FC23689A689042B0
:1057B0000CD25B6853F8200048B10023054A064923
:1057C0000CF0CAF8003018BF012010BD002010BD39
:1057D000780C0020AC7B02086C8F020810B50446E0
:1057E0000A480CF073FC23689A6890420CD25B68FC
:1057F00053F8200048B10023054A06490CF0ACF8E4
:10580000003018BF012010BD002010BDC00C0020CA
:10581000F47F02086C8F020810B504460A480CF0A9
:1058200055FC23689A6890420CD25B6853F82000BC
:1058300048B10023054A06490CF08EF8003018BF25
:10584000012010BD002010BDC40C0020E87F02081C
:105850006C8F02082DE9F043079F089C0026B6468E
:10586000013B12F80EC0A4EB0708BCEBA80F02EB3B
:105870000E050CDA4FFA8CF9B9F1000F07DD9E45E1
:10588000A4EB8C0434BF0EF1010E0136E9E7A0F160
:10589000040E3B46A34204D053F8047B4EF8047F29
:1058A000F8E7404416F1FF360FD301602B789B00D8
:1058B000074604EB030C644502D104331844F1E7B6
:1058C00054F804EB47F804EFF5E7954210D0016077
:1058D00015F8013D9B00064604EB030E744502D10A
:1058E00004331844F1E754F8047B46F8047FF5E7E5
:1058F000BDE8F083F7B5089F099C0B9E0846194642
:105900000A9BC7B1FD1AAD1003EB850E8DE8084068
:10591000134602462046FFF79DFF041BA4103FB12B
:1059200032683946521BFFF757FB33685D1B2C4426
:10593000346003B0F0BD3568E6E773B5099D08989B
:10594000079C1E462B6800EB83038DE80900134675
:1059500020460A463146FFF77DFF001B8010286075
:1059600002B070BD30B59DF80C4084B103460A25E5
:10597000B1FBF5F405FB1411043152F8211043F882
:10598000041D2146002CF3D1C01A801030BD03F055
:105990004A04402C0AD1034601F007040434C90824
:1059A00052F8244043F8044DF6D1EDE713F4804F4C
:1059B00014BF14250425034601F00F042C440909E3
:1059C00052F8244043F8044DF6D1DDE72DE9F041CB
:1059D00014469DF82020DDF818801D460746079BD9
:1059E000D2B10646204629460A220023FBF75AF97F
:1059F0000432204658F8223046F8043D2946002358
:105A00000A22FBF74FF904460D4654EA0503E9D193
:105A1000B81B8010BDE8F08103F04A02402A11D182
:105A2000064604F007030433EA0858F8233046F822
:105A3000043DE30843EA45731C46154654EA050352
:105A4000EFD1E5E713F4804F14BF1421042106467B
:105A500004F00F030B442A0958F8233046F8043D9C
:105A6000230943EA05731C46154654EA0503EFD1A2
:105A7000CEE710B40468E46AA4465DF8044B6047BE
:105A80002DE9FF47044608460F46FFF74DFE054641
:105A9000FFF7F4FA60612846FFF7F3FAA0612846A1
:105AA000FFF70EFB294660636846FFF7EDFA009B9F
:105AB00053F80C0CE0600BF0B1FF002301460646E2
:105AC000E26868460AF06EF9E3682BB196F9003097
:105AD000002BD4BF002301232946237401A8FFF71C
