:020000040800F2
:1000000000000120994E00082D4C00082F4C0008DC
:10001000314C0008334C0008354C0008000000004B
:10002000000000000000000000000000374C000845
:10003000394C0008000000003B4C00083D4C000813
:10004000E94E0008E94E0008E94E0008E94E0008B4
:10005000E94E0008E94E0008E94E0008E94E0008A4
:10006000E94E0008E94E0008E94E0008E94E000894
:10007000E94E0008E94E0008E94E0008414C00082E
:100080004D4C0008594C0008E94E0008E94E0008A4
:10009000E94E0008E94E0008E94E0008E94E000864
:1000A000E94E0008E94E0008E94E0008E94E000854
:1000B000E94E0008E94E0008E94E0008E94E000844
:1000C000E94E0008E94E0008E94E0008E94E000834
:1000D000654C0008E94E0008714C0008E94E000824
:1000E000E94E0008E94E0008E94E0008E94E000814
:1000F000E94E0008E94E0008E94E0008E94E000804
:10010000E94E00080000000000000000E94E000871
:10011000E94E0008E94E0008E94E0008E94E0008E3
:10012000E94E0008E94E0008E94E0008E94E0008D3
:10013000E94E0008E94E0008000000000000000041
:10014000E94E0008E94E0008E94E000800000000F2
:10015000000000000000000000000000000000009F
:10016000E94E0008E94E0008E94E0008E94E000893
:10017000E94E0008E94E0008E94E0008E94E000883
:10018000E94E0008E94E00080000000000000000F1
:04019000E94E00082C
:1001A00010B5054C237833B9044B13B10448AFF3B1
:1001B00000800123237010BDD40200200000000045
:1001C0002C5F020808B5034B1BB103490348AFF38A
:1001D000008008BD00000000D80200202C5F02084B
:1001E00001F0FF01102A2BDB10F0070F08D010F8E8
:1001F000013B013A8B422DD010F0070F42B3F6D1EC
:10020000F0B441EA012141EA014122F007047FF004
:1002100000070023F0E80256083C85EA010586EA5B
:10022000010685FA47F5A3FA87F586FA47F6A5FA97
:1002300087F68EB9EED1F0BC01F0FF0102F00702A3
:1002400032B110F8013B013A83EA010313B1F8D14E
:100250000020704701387047002D06BF354603382F
:10026000073815F0010F07D1013015F4807F02BF68
:10027000013015F4C03F0130F0BC0138704700BFB9
:1002800010F8012B11F8013B012A28BF9A42F7D040
:10029000D01A7047034613F8012B002AFBD1181A15
:1002A0000138704781F0004102E000BF83F0004355
:1002B00030B54FEA41044FEA430594EA050F08BF01
:1002C00090EA020F1FBF54EA000C55EA020C7FEAC5
:1002D000645C7FEA655C00F0E2804FEA5454D4EB42
:1002E0005555B8BF6D420CDD2C4480EA020281EA0C
:1002F000030382EA000083EA010180EA020281EA44
:100300000303362D88BF30BD11F0004F4FEA013195
:100310004FF4801C4CEA113102D0404261EB4101A4
:1003200013F0004F4FEA03334CEA133302D052422A
:1003300063EB430394EA050F00F0A780A4F10104E6
:10034000D5F1200E0DDB02FA0EFC22FA05F2801820
:1003500041F1000103FA0EF2801843FA05F3594106
:100360000EE0A5F120050EF1200E012A03FA0EFC85
:1003700028BF4CF0020C43FA05F3C01851EBE371AF
:1003800001F0004507D54FF0000EDCF1000C7EEBCC
:1003900000006EEB0101B1F5801F1BD3B1F5001F0A
:1003A0000CD349085FEA30004FEA3C0C04F1010429
:1003B0004FEA445212F5800F80F09A80BCF1004F52
:1003C00008BF5FEA500C50F1000041EB045141EAD4
:1003D000050130BD5FEA4C0C404141EB010111F4D5
:1003E000801FA4F10104E9D191F0000F04BF014680
:1003F0000020B1FA81F308BF2033A3F10B03B3F15E
:1004000020020CDA0C3208DD02F1140CC2F10C02ED
:1004100001FA0CF021FA02F10CE002F11402D8BF4B
:10042000C2F1200C01FA02F120FA0CFCDCBF41EA17
:100430000C019040E41AA2BF01EB0451294330BDE6
:100440006FEA04041F3C1CDA0C340EDC04F11404C3
:10045000C4F1200220FA04F001FA02F340EA03009A
:1004600021FA04F345EA030130BDC4F10C04C4F1E0
:10047000200220FA02F001FA04F340EA03002946C0
:1004800030BD21FA04F0294630BD94F0000F83F40A
:10049000801306BF81F480110134013D4EE77FEAED
:1004A000645C18BF7FEA655C29D094EA050F08BF39
:1004B00090EA020F05D054EA000C04BF194610461A
:1004C00030BD91EA030F1EBF0021002030BD5FEA5E
:1004D000545C05D14000494128BF41F0004130BD86
:1004E00014F580043CBF01F5801130BD01F00045DA
:1004F00045F0FE4141F470014FF0000030BD7FEA4D
:10050000645C1ABF194610467FEA655C1CBF0B4647
:10051000024650EA013406BF52EA033591EA030F5E
:1005200041F4002130BD00BF90F0000F04BF002156
:10053000704730B54FF4806404F132044FF0000589
:100540004FF0000150E700BF90F0000F04BF002102
:10055000704730B54FF4806404F1320410F0004568
:1005600048BF40424FF000013EE700BF42004FEA63
:10057000E2014FEA31014FEA02701FBF12F07F43E0
:1005800093F07F4F81F06051704792F0000F14BFDD
:1005900093F07F4F704730B54FF4607401F0004521
:1005A00021F0004120E700BF50EA010208BF704778
:1005B00030B54FF000050AE050EA010208BF70476D
:1005C00030B511F0004502D5404261EB41014FF4D6
:1005D000806404F132045FEA915C3FF4DCAE4FF0DA
:1005E00003025FEADC0C18BF03325FEADC0C18BFC1
:1005F000033202EBDC02C2F1200300FA03FC20FA12
:1006000002F001FA03FE40EA0E0021FA02F114445E
:10061000C1E600BF70B54FF0FF0C4CF4E06C1CEA73
:1006200011541DBF1CEA135594EA0C0F95EA0C0FE8
:1006300000F0DEF82C4481EA030621EA4C5123EA5B
:100640004C5350EA013518BF52EA033541F480118A
:1006500043F4801338D0A0FB02CE4FF00005E1FB3D
:1006600002E506F00042E0FB03E54FF00006E1FB87
:1006700003569CF0000F18BF4EF0010EA4F1FF04CA
:10068000B6F5007F64F5407404D25FEA4E0E6D410A
:1006900046EB060642EAC62141EA55514FEAC5201B
:1006A00040EA5E504FEACE2EB4F1FD0C88BFBCF597
:1006B000E06F1ED8BEF1004F08BF5FEA500E50F148
:1006C000000041EB045170BD06F0004646EA01010E
:1006D00040EA020081EA0301B4EB5C04C2BFD4EB40
:1006E0000C0541EA045170BD41F480114FF0000E39
:1006F000013C00F3AB8014F1360FDEBF002001F0A7
:10070000004170BDC4F10004203C35DA0C341BDC20
:1007100004F11404C4F1200500FA05F320FA04F0F2
:1007200001FA05F240EA020001F0004221F0004126
:1007300010EBD37021FA04F642EB06015EEA430E99
:1007400008BF20EAD37070BDC4F10C04C4F12005C9
:1007500000FA04F320FA05F001FA04F240EA02007C
:1007600001F0004110EBD37041F100015EEA430E4D
:1007700008BF20EAD37070BDC4F1200500FA05F26D
:100780004EEA020E20FA04F301FA05F243EA0203EC
:1007900021FA04F001F0004121FA04F220EA0200FB
:1007A00000EBD3705EEA430E08BF20EAD37070BD41
:1007B00094F0000F0FD101F00046400041EB010121
:1007C00011F4801F08BF013CF7D041EA060195F003
:1007D000000F18BF704703F00046520043EB0303BD
:1007E00013F4801F08BF013DF7D043EA06037047AA
:1007F00094EA0C0F0CEA135518BF95EA0C0F0CD0B5
:1008000050EA410618BF52EA4306D1D181EA0301FA
:1008100001F000414FF0000070BD50EA410606BFF4
:100820001046194652EA430619D094EA0C0F02D139
:1008300050EA013613D195EA0C0F05D152EA03367E
:100840001CBF104619460AD181EA030101F000419C
:1008500041F0FE4141F470014FF0000070BD41F0E5
:10086000FE4141F4780170BD70B54FF0FF0C4CF4BF
:10087000E06C1CEA11541DBF1CEA135594EA0C0FDE
:1008800095EA0C0F00F0A7F8A4EB050481EA030E2B
:1008900052EA03354FEA013100F088804FEA033312
:1008A0004FF0805545EA131343EA12634FEA0222E0
:1008B00045EA111545EA10654FEA00260EF00041A1
:1008C0009D4208BF964244F1FD0404F5407402D2F3
:1008D0005B084FEA3202B61A65EB03055B084FEA84
:1008E00032024FF480104FF4002CB6EB020E75EB81
:1008F000030E22BFB61A754640EA0C005B084FEAA9
:100900003202B6EB020E75EB030E22BFB61A754625
:1009100040EA5C005B084FEA3202B6EB020E75EB70
:10092000030E22BFB61A754640EA9C005B084FEAE8
:100930003202B6EB020E75EB030E22BFB61A7546F5
:1009400040EADC0055EA060E18D04FEA051545EAE4
:1009500016754FEA06164FEAC30343EA52734FEA8D
:10096000C2025FEA1C1CC0D111F4801F0BD141EA06
:1009700000014FF000004FF0004CB6E711F4801F6B
:1009800004BF01430020B4F1FD0C88BFBCF5E06F4B
:100990003FF6AFAEB5EB030C04BFB6EB020C5FEA5B
:1009A000500C50F1000041EB045170BD0EF0004EB0
:1009B0004EEA113114EB5C04C2BFD4EB0C0541EAE2
:1009C000045170BD41F480114FF0000E013C90E6DF
:1009D00045EA060E8DE60CEA135594EA0C0F08BFA3
:1009E00095EA0C0F3FF43BAF94EA0C0F0AD150EAA2
:1009F00001347FF434AF95EA0C0F7FF425AF104635
:100A000019462CE795EA0C0F06D152EA03353FF45C
:100A1000FDAE1046194622E750EA410618BF52EAD9
:100A200043067FF4C5AE50EA41047FF40DAF52EAAD
:100A300043057FF4EBAE12E74FF0FF3C06E000BF4A
:100A40004FF0010C02E000BF4FF0010C4DF804CD57
:100A50004FEA410C7FEA6C5C4FEA430C18BF7FEA17
:100A60006C5C1BD001B050EA410C0CBF52EA430C45
:100A700091EA030F02BF90EA020F0020704710F1C5
:100A8000000F91EA030F58BF994208BF90422CBF54
:100A9000D8176FEAE37040F0010070474FEA410C4D
:100AA0007FEA6C5C02D150EA013C07D14FEA430C6B
:100AB0007FEA6C5CD6D152EA033CD3D05DF8040BDC
:100AC000704700BF8446104662468C46194663460E
:100AD00000E000BF01B5FFF7B7FF002848BF10F1E5
:100AE000000F01BD4DF808EDFFF7F4FF0CBF01202A
:100AF00000205DF808FB00BF4DF808EDFFF7EAFFA6
:100B000034BF012000205DF808FB00BF4DF808ED60
:100B1000FFF7E0FF94BF012000205DF808FB00BF55
:100B20004DF808EDFFF7CEFF94BF012000205DF8DF
:100B300008FB00BF4DF808EDFFF7C4FF34BF0120EC
:100B400000205DF808FB00BF4FEA410C7FEA6C5CB7
:100B500002D150EA013C0AD14FEA430C7FEA6C5CB7
:100B600002D152EA033C02D14FF0000070474FF02F
:100B7000010070474FEA410212F5001215D211D55B
:100B80006FF47873B3EB625212D94FEAC12343F08A
:100B9000004343EA505311F0004F23FA02F018BF0C
:100BA000404270474FF00000704750EA013005D1D5
:100BB00011F0004008BF6FF0004070474FF0000098
:100BC000704700BF4A0011D212F5001211D20DD5A4
:100BD0006FF47873B3EB62520ED44FEAC12343F043
:100BE000004343EA505323FA02F070474FF00000ED
:100BF000704750EA013002D14FF0FF3070474FF09C
:100C0000000070474FEA4102B2F1E04324BFB3F560
:100C1000001CDCF1FE5C0DD901F0004C4FEAC00273
:100C20004CEA5070B2F1004F40EB830008BF20F057
:100C30000100704711F0804F21D113F13872BCBF11
:100C400001F00040704741F480114FEA5252C2F166
:100C50001802C2F1200C10FA0CF320FA02F018BFAF
:100C600040F001004FEAC1234FEAD32303FA0CFC02
:100C700040EA0C0023FA02F34FEA4303CCE77FEA91
:100C8000625307D150EA01331EBF4FF0FE4040F4DB
:100C90004000704701F0004040F0FE4040F400008A
:100CA000704700BF53B94AB9002908BF00281CBFCC
:100CB0004FF0FF314FF0FF3001F0F6B8ADF1080C06
:100CC0006DE904CE00F006F8DDF804E0DDE902236A
:100CD00004B070472DE9F0478C460D460446089E47
:100CE000002B51D18A4217466DD9B2FA82FEBEF16D
:100CF000000F0BD0CEF1200C01FA0EF520FA0CFCFF
:100D000002FA0EF74CEA050C00FA0EF44FEA174A05
:100D1000250CBCFBFAF81FFA87F90AFB18CC45EA48
:100D20000C4508FB09F3AB420AD9ED1908F1FF3273
:100D300080F02381AB4240F22081A8F102083D44BB
:100D4000ED1AA4B2B5FBFAF00AFB105544EA0544CB
:100D500000FB09F9A14509D9E41900F1FF3380F03E
:100D60000A81A14540F2078102383C44A4EB090402
:100D700040EA08400021002E61D024FA0EF400233E
:100D800034607360BDE8F0878B4207D9002E54D0E1
:100D9000002186E821000846BDE8F087B3FA83F118
:100DA000002940F08E80AB4202D3824200F2FA80EA
:100DB000841A65EB03050120AC46002E3FD086E87F
:100DC0001010BDE8F08712B90127B7FBF2F7B7FAA8
:100DD00087FEBEF1000F34D1EB1B3A0C1FFA87FCE3
:100DE0000121B3FBF2F8250C02FB183345EA034559
:100DF0000CFB08F3AB4207D9ED1908F1FF3002D222
:100E0000AB4200F2D1808046ED1AA3B2B5FBF2F0FE
:100E100002FB105543EA05440CFB00FCA44507D92E
:100E2000E41900F1FF3302D2A44500F2B88018465D
:100E3000A4EB0C0440EA08409DE731463046BDE88B
:100E4000F087CEF1200405FA0EF307FA0EF720FA28
:100E500004F83A0C25FA04F448EA0308B4FBF2F16A
:100E60004FEA184502FB11441FFA87FC45EA044586
:100E700001FB0CF3AB4200FA0EF409D9ED1901F1B4
:100E8000FF3080F08A80AB4240F2878002393D44D7
:100E9000EB1A1FFA88F5B3FBF2F002FB103345EAB8
:100EA000034500FB0CF3AB4207D9ED1900F1FF3805
:100EB0006FD2AB426DD902383D44EB1A40EA014192
:100EC0008FE7C1F1200722FA07F88B4005FA01F4F9
:100ED00048EA030320FA07FE4FEA134CFD404EEAAE
:100EE000040EB5FBFCF94FEA1E440CFB19551FFA22
:100EF00083F844EA054509FB08F4AC4202FA01F222
:100F000000FA01FA08D9ED1809F1FF3043D2AC42DA
:100F100041D9A9F102091D442D1B1FFA8EFEB5FB14
:100F2000FCF00CFB10554EEA054400FB08F8A04508
:100F300007D9E41800F1FF3529D2A04527D9023896
:100F40001C4440EA0940A4EB0804A0FB02894C457C
:100F5000C6464D4615D312D056B1BAEB0E0364EB1C
:100F6000050404FA07F7CB401F43CC403760746098
:100F70000021BDE8F0871846F8E69046E0E6C24555
:100F8000EAD2B8EB020E69EB03050138E4E7284624
:100F9000D7E7404691E78146BEE7014678E7023849
:100FA0003C4445E7084608E7A8F102083D442BE722
:100FB00003685A004CBF43F0004323F00043184439
:100FC000704700BF61B32DE9F84F01F1FF3A904639
:100FD0000646D146002707EB090404EBD4746410DD
:100FE000E50071190846FFF7E3FFA245834605F1C6
:100FF0000800304409D0FFF7DBFFC34500F1FF30A4
:1010000005D8404509D2671CE5E7C34505D9A74285
:1010100002D004F1FF39DEE700210846BDE8F88F71
:1010200008467047012807D0022807D0044B002843
:101030000CBF1846002070470248704702487047AE
:10104000291700082D1700083117000830B5244B68
:1010500083B004468D1E7BB301A92846AFF3008000
:1010600020B301992A46FFF7ADFF0146F0B1FFF723
:101070009FFF4B68A064012B12D0002B01F10400EC
:1010800020DBFFF795FF0023E06423650368002B56
:101090001CDBFFF78DFF00232061184603B030BD35
:1010A000002323610523184603B030BD00232361CC
:1010B0000923184603B030BD0A490B48091AC91064
:1010C0000191CFE70123E0642365DFE7C3F3036009
:1010D000FFF7A8FF0028206114BF00230923DCE7E5
:1010E00000000000D8CD020868CC02080368DA07C7
:1010F00010B5044606D49B0700F1480009D500F05E
:1011000051FC2368590709D51A070ED5DB0613D5FC
:1011100010BD00F03FFC23685907F5D404F1D0005E
:1011200000F048FC23681A07F0D404F5A87000F01A
:1011300049FC2368DB06EBD404F5E870BDE81040F9
:1011400000F084BC036803B103441846704700BF35
:1011500009207047704700BF70B504460D4608E08F
:101160002B6C63612A462369214601209847082891
:1011700008D1296C2046FFF769FF06460028EFD00A
:101180001DF046F90728FBD13046296CFFF7E2FF36
:10119000281D00F0F3FB00BF2DE9F0470C1D0546AC
:1011A00092460FCCADF5727D03AE0FC60FCC0FC6C5
:1011B0000FCC0FC694E80F0002ACD5F80C80D5F820
:1011C000189086E80F0000232846216C2360FFF763
:1011D0003DFFBAF1000F074614BF0A2609267FB16A
:1011E000A36B46F010018DE810022A4663640120CB
:1011F0002B46C04778BB38460DF5727DBDE8F087B9
:10120000236C6B614FF4F07221467AA81DF09BFEAF
:101210002B697AAA294630469847889B82468DE8F2
:101220001002314663642A462B460120C04790B91C
:101230004FF4F0727AA920461DF085FEBAF1080F2E
:1012400006D1216C2846FFF701FF09260746C6E7AD
:10125000BAF1070F05D0092738460DF5727DBDE8B4
:10126000F0873846216CFFF775FF03A800F086FB76
:10127000406C7047F0B5CB6B0B640E1D0F460446F7
:101280000FCEF9B001AD0FC50FCE0FC50FCE0FC5F4
:1012900096E80F004FF0FF3685E80F00009606E055
:1012A00023696A46214698470828054608D11099BF
:1012B0002046FFF7CBFE0028F2D0092079B0F0BD20
:1012C0006846FFF713FF062DF7D139462046FFF792
:1012D00043FF00BF30B4DD6BC160826119461D64FD
:1012E000002230BC58E700BF70B5C66843690B6484
:1012F00026B10122FFF750FF1DF08AF803690A4664
:1013000004460D46014602209847072807D00828C2
:1013100003D129462046FFF71FFF1DF079F830461C
:10132000296CFFF717FF281D00F028FBC2681AB1CF
:10133000CA6B0A6400222FE79CE700BF704700BF1A
:10134000836813B1014601201847704700B504298E
:1013500007D8DFE801F00309060909000BB90F2AD5
:1013600005D902205DF804FB01205DF804FB00EBC9
:10137000820218465368019A13605DF804FB00BFAF
:1013800010B584B0002303AC0A4600941946FFF759
:10139000DDFF039804B010BD00B5042907D8DFE8CD
:1013A00001F00309060909000BB90F2A05D902202B
:1013B0005DF804FB01205DF804FB019900EB82025B
:1013C0000968516018465DF804FB00BF10B584B091
:1013D00004AC002344F8042D0A4600941946FFF794
:1013E000DBFF04B010BD00BFF0B5D36B1364151D57
:1013F00007460E460FCDADF50F7D17AC0FC40FCDD0
:101400000FC40FCD0FC495E80F004FF0FF3584E8EF
:101410000F00169510E016A8FFF7D8FF314616A862
:10142000B84716AA694678B9049B0820984705284A
:1014300004460AD0092807D026996846FFF706FE19
:101440006A460C210028E6D0092416A8FFF74EFEB4
:1014500020460DF50F7DF0BD2DE9F04F0D46C96C0E
:101460008BB00C1D096807919146089400F0030B9E
:101470001E46002B60D10902032307918DF82560D9
:101480008DF824302B6DBBF1020F08BFAC6B13F04D
:10149000010340D1019300F008030393D4F80080C6
:1014A000B8F1000F39D0022E43D0B4F8008067881D
:1014B0000434AB6C27F0010A0F2148469A44FFF729
:1014C0005FFF824533D828F001039A4450452CBF72
:1014D000002001207F0007F0020708F0010847EA1A
:1014E0000807012F3ED035D3022F1CD1236823F0EB
:1014F00000420292BBF1000F76D128B10399002976
:101500007ED0002A00F0A680002B77DB029B0133FF
:1015100004EB8304C2E700230193022E3EDDFFF7B4
:1015200017FE002840D009200BB0BDE8F08F002046
:10153000D0E767680834BCE7022BA3DC0B0CDAB2F7
:1015400009048DF82530022304EB820407918DF8FD
:10155000243097E7BBF1000F02D0002840F0BD8097
:1015600004349BE7BBF1000F25D1A8B194E80C002F
:10157000991C4FEAD272D6D005F158010133069179
:1015800000F0A380201DFFF7DDFD06AB01462846D5
:1015900003F0E6FC002877D108347FE707A9484626
:1015A00000F0EEFA0028BED1019B002B5CD1082090
:1015B0000BB0BDE8F08F0D2148462F6AFFF7E0FE23
:1015C0008742E9D1AB6A9C42E6D12046FFF7F0FCA6
:1015D0000F2102464846FFF7F9FE48462A460021F9
:1015E000FFF7F4FE07209FE70D2148462F6AFFF71B
:1015F000C7FE874258D02368002B87DA043485E77A
:10160000029B3BB305F15803271DCDF810B0DDF860
:101610000C80DDF808A00596A3461C4602E0B24502
:10162000B04616D038460694FFF78CFD06AB01464F
:101630000022284603F094FC08F101060437002834
:10164000EDD0029B059E43455C46DDF810B0D2D13B
:1016500000E05C4648460D21FFF792FE069B28629B
:10166000AC626B6206205FE70F214846FFF788FEF9
:101670000E2102464846FFF7A9FE4846294A0F2197
:10168000FFF7A4FE07204FE707460D214846FFF766
:1016900077FE022F28621DD12B46069A43F82C2F85
:1016A0006B62AC6206203FE7AB6A9C42A3D1042286
:1016B0000027A3180299A962EF622A636B6323686B
:1016C000BB421DDB0123019320E748460D21FFF7B4
:1016D00057FE2862069B6B62E3E72046FFF768FC33
:1016E00004340646AC63284603F098FC00283FF417
:1016F0001AAF484632460F21FFF768FE072013E76E
:101700000846013004EB8000FFF752FC0F2102462F
:101710004846FFF75BFE48462A463946FFF756FE25
:10172000072001E741330108002395E6012393E6F2
:10173000022391E6F0B50446C5B004290DD8DFE8D0
:1017400001F053030C310F00012B4FEA124695B202
:1017500062D17219102A40F29B80022045B0F0BD80
:10176000002BFAD1102AF8D82368D80600F1C680D9
:1017700022AE3046019200F073F9A06B019A00236B
:10178000012505FA03F1114203D0016846F8231040
:1017900004300133042BF4D1A063304600F056F935
:1017A0000020DBE7032BD8D1150C97B2EB19102BD7
:1017B000D3D823681E0700F1B58022AE304600F072
:1017C00023F9ED00A36B4FB1043D711903EBC70082
:1017D00053F8042B41F8042F8342F9D13046A36318
:1017E00000F0F0F80020B9E7002BB6D1A56B97B256
:1017F000201D012606FA03F1394203F1010302D04C
:10180000296801600435102B00F10400F2D112F4B4
:1018100000503BD1A563A1E7052B9ED17719202F5E
:101820009BD80F2E66D92F46002D3AD12A46002785
:10183000002AA06B72DD00EBC202014644A800EB57
:10184000C6008C3851F8045B40F8045F9142F9D12E
:10185000084697B1102E324644A938BF102201EB3A
:10186000C202A2F5C4727900043A00EB810150F87B
:10187000045B42F8045F8842F9D1012B48D00F2E57
:10188000A16333D917B102A800F094F8002065E7EE
:101890000F2E3FF662AF00272268D10717D4002F22
:1018A00060D02268510745D4012B4DD00F2E06D8A9
:1018B00022A8019300F07AF8019B002FB6D002A86D
:1018C000019300F07BF8019BC6F11002B0E722F013
:1018D0000101052B2160019320463BD022F0030239
:1018E00040F8482B00F05AF8019BD8E722A800F0F6
:1018F00059F8C7E7102FCED9103FCDE723F01003DA
:10190000236004F5E870019200F0AAF8019A2FE72D
:101910000431A16322A800F03DF8B7E7002F99D168
:101920000146AAE723F00803236004F5A87000F03D
:101930006BF842E7204622F0040240F8D02B0193D6
:1019400000F03CF8019BAFE722A8019300F026F8D5
:10195000019BB9E741F0020140F8481B00F026F86E
:10196000019B9CE7012B03D00F2E3FF65FAF9FE753
:1019700022A8019300F012F8019B57E700F134010F
:1019800091E838009C46A6464CF8045D90E8FF0FAD
:10199000E54600BD90EC210B704700BF80EC210BA9
:1019A000704700BF90EC200B704700BF80EC200B0D
:1019B000704700BFD0EC200B704700BFC0EC200B7D
:1019C000704700BFF0EC0201F0EC0211F0EC0221D4
:1019D000F0EC0231F0EC0241F0EC0251F0EC02616B
:1019E000F0EC0271F0EC0281F0EC0291F0EC02A15B
:1019F000F0EC02B1F0EC02C1F0EC02D1F0EC02E14B
:101A0000F0EC02F1704700BFE0EC0201E0EC0211E3
:101A1000E0EC0221E0EC0231E0EC0241E0EC0251AA
:101A2000E0EC0261E0EC0271E0EC0281E0EC02919A
:101A3000E0EC02A1E0EC02B1E0EC02C1E0EC02D18A
:101A4000E0EC02E1E0EC02F1704700BFB0FC018184
:101A5000B0FC0191B0FC01A1B0FC01B1704700BF26
:101A6000A0FC0181A0FC0191A0FC01A1A0FC01B19E
:101A7000704700BFEC4600B52DE900502DE9FF1F6F
:101A80004FF000032DE90C0001A9FFF7F3FBDDF88F
:101A900040E012B0704700BFEC4600B52DE90050A1
:101AA0002DE9FF1F4FF000032DE90C0001A9FFF7FE
:101AB0001BFCDDF840E012B0704700BFEC4600B5FB
:101AC0002DE900502DE9FF1F4FF000032DE90C0018
:101AD00001A9FFF72BFCDDF840E012B0704700BF12
:101AE000EC4600B52DE900502DE9FF1F4FF0000333
:101AF0002DE90C0001ABFFF7EDFBDDF840E012B083
:101B0000704700BFEC4600B52DE900502DE9FF1FDE
:101B10004FF000032DE90C0001AAFFF765FCDDF88A
:101B200040E012B0704700BF027A1AB9437A43B955
:101B3000B02070470368013A02721A020260180E60
:101B400070474268013B10B4437213680321141DAF
:101B500001721A02446002605DF8044B180E70476F
:101B600000B585B003AA0023009219460C22FFF7A6
:101B7000EDFB039805B05DF804FB00BFF0E700BF84
:101B80002DE9F043064685B00F464FF00008384671
:101B9000FFF7CAFFB028044623D0050627D4002348
:101BA0000DF10C09194685000D22CDF80090304644
:101BB000FFF7CCFBEDB2039BCDF80090600605F17A
:101BC00004054CBF5D1BED18002319460D2230465D
:101BD0000395FFF7E1FB3846FFF7A6FFB028044660
:101BE000DBD1B8F1000F00F0958000201CE000F080
:101BF000F003802B5DD0902B19D0A02B2CD0B02BD4
:101C00003FD0C02B6CD000F0F803D02B0BD100F0EC
:101C10000702013242F40022052301213046FFF77A
:101C200089FD0028B3D0092005B0BDE8F08300F09D
:101C30000D030D2BF7D003AD002300F00F02194662
:101C400000953046FFF782FB0023009519460D22D0
:101C50003046FFF7A1FB9AE7C24302F007034FF4B7
:101C60007F621A41010702F47F624FF0000348BF10
:101C700042F4804219463046FFF75CFD0028D2D17D
:101C800085E7B12857D0B22868D0B32800F09580F6
:101C900000F0FC03B42BC6D000F007020132012390
:101CA00042F4002219463046FFF744FD0028BAD11D
:101CB0006DE73846FFF738FF24020443B4F5004FC0
:101CC000B1D024010023A2B219463046FFF732FDFD
:101CD0000028A8D114F4004F18BF4FF0010856E7B0
:101CE000C6287DD0C72800F0868000F0F803C02BFE
:101CF00000F09480C82800F09F80C92893D138460E
:101D0000FFF712FF020300F00F0002F4702201300F
:101D1000024381E703AC43460E224146009430461D
:101D2000FFF714FB0094304643460F224146FFF76D
:101D300033FB404678E73846FFF7F6FE00283FF4CD
:101D400072AF10F0F0037FF46EAF024619463046D2
:101D5000FFF7F0FC00287FF466AF18E700230DF1D1
:101D60000C090D221946CDF800903046FFF7EEFA27
:101D70003846FFF7D9FE02064FF002040CD5039B4C
:101D800000F07F00A040034438460393FFF7CCFEE9
:101D9000030604F10704F2D4039BCDF8009000F091
:101DA0007F02A24003F501740023144419460D225A
:101DB00030460394FFF7F0FAE9E63846FFF7B4FE41
:101DC000010300F00F0001F47021421C01230A43BB
:101DD00030461946FFF7AEFC00287FF424AFD6E664
:101DE0003846FFF7A1FE010300F00F0001F4702157
:101DF000421C0323EBE73846FFF796FE00283FF42A
:101E000012AF10F0F0037FF40EAF0246042130460B
:101E1000FFF790FC00287FF406AFB8E600F00F0251
:101E20000132032342F4202219463046FFF782FC98
:101E300000287FF4F8AEAAE63846FFF775FE00F0FA
:101E4000F00200F00F031032013343EA0232E3E6FE
:101E500010B5C36C84B05A6803208DF80C00DC798F
:101E60008DF80D4012020833084601A90192029331
:101E7000FFF786FE04B010BD08B5FFF77FFE806C4B
:101E800008BD00BF08B5FFF779FEC06CC37900EB51
:101E90008300083008BD00BF08B51CF0B9FA00BFC8
:101EA00008B5FFF7F9FF00BF704700BF38B50E4A0D
:101EB0000E4B054618784FF47A73B3FBF0F31068B5
:101EC000B0FBF3F000F0A0F8044658B90F2D09D884
:101ED000024629464FF0FF3000F056F8044B2046EA
:101EE0001D6038BD012038BD3000002024000020D6
:101EF00028000020074A08B5136843F01003136058
:101F0000032000F02FF80020FFF7D0FF02F076FE4C
:101F1000002008BD00200240034A044B11681B78D2
:101F20000B441360704700BF781D00202400002080
:101F3000014B1868704700BF781D002038B5044673
:101F4000FFF7F6FF631C1CBF054B1B78054618BF47
:101F5000E418FFF7EDFF401B8442FAD838BD00BFFC
:101F600024000020074AD36823F4E0631B041B0C01
:101F700043F0BF63000243F4003300F4E060034326
:101F8000D360704700ED00E0174B30B5DC68C4F358
:101F90000224C4F10703251D042B28BF0423062DAA
:101FA0004FF0010505FA03F303F1FF338CBF033C47
:101FB00000241940A14005FA04F4013C2240002805
:101FC00042EA01024FEA0212AFBF00F1604000F0A6
:101FD0000F00064BD2B2A5BF00F56140D2B21A5431
:101FE00080F8002330BD00BF00ED00E014ED00E0FC
:101FF0004209012300F01F0003FA00F0014B43F8EF
:102000002200704700E100E00138B0F1807F0AD281
:10201000064B074A5860F02182F82310002007225F
:1020200098601A6070470120704700BF10E000E020
:1020300000ED00E001680C4B994210B54FF014041C
:1020400009D80A4A0A44B2FBF4F292000264A3F2ED
:102050000743C36310BD064B0B44B3FBF4F39B0073
:102060000364044BF5E700BF07040240F8FFFDBF1F
:10207000F8FBFDBF0004024038B5044608B3022354
:10208000856880F82130436801682B43C5680A6879
:102090002B4305692B4345692B4385692B43C56950
:1020A00022F47F5222F030022B4313430B60FFF7E0
:1020B000C1FF00200123A06384F8213084F82000B0
:1020C00038BD012038BDF0B590F82040012C35D046
:1020D00090F821500124A54280F820404FF00006DE
:1020E0004FF0020428D180F82140046886632668F6
:1020F000076C26F001062660C66BBD407560636004
:1021000043680568102BC36A0BBFA260A160E16041
:10211000E2604BB1236843F00E0323602B6843F069
:1021200001032B600020F0BD236843F00A03236005
:10213000236823F00403F0E780F820600220F0BD5C
:1021400090F82120022A10B503D0042282630120D6
:1021500010BD0268C46B1168436B21F00E01116061
:10216000116821F001011160026C012101FA02F2F3
:102170006260002480F8211080F8204013B1984755
:10218000204610BD184610BDC16B026C036870B4C8
:102190000E681D680424944026420ED015F0040FEA
:1021A0000BD01A6892065EBF1A6822F004021A6009
:1021B000C36A4C6073B370BC184702249440264233
:1021C00012D015F0020F0FD01A68950606D41A68BF
:1021D00022F00A021A60012380F8213000234C60AB
:1021E00080F82030836AE5E708249440344211D017
:1021F0002C070FD51C6824F00E041C60012303FA81
:1022000002F24A60836380F82130002380F8203096
:10221000036BCFE770BC70472DE9F74FD1F8008012
:10222000DFF89091614A002338FA03F402D103B039
:10223000BDE8F08F4FF0010E0EFA03FE18EA0E060D
:1022400000F0A6804C6824F01007022F16D14FEA48
:10225000D30A00EB8A0A03F0070BDAF820504FEAA2
:102260008B0B4FF00F0C0CFA0BFC25EA0C0C0D69D4
:1022700005FA0BF545EA0C05CAF820504FEA430A67
:102280000325D0F800B005FA0AF5ED4304F0030C7D
:102290000BEA050B0CFA0AFC013F4CEA0B0C012F70
:1022A000C0F800C011D8876807EA050BCF6807FAA5
:1022B0000AFC4CEA0B078760476827EA0E0EC4F356
:1022C00000179F4047EA0E074760C7683D408F6888
:1022D00007FA0AF73D43C560E50059D5D9F818500B
:1022E00045F00105C9F81850D9F8185023F0030734
:1022F00007F1804705F0010507F58037019503F0E8
:10230000030C019DBD684FEA8C0C4FF00F0E0EFAC6
:102310000CFEB0F1904F25EA0E0E3BD0244DA842A2
:102320003AD005F58065A84238D005F58065A84209
:1023300036D005F58065A84234D005F58065A84201
:1023400032D005F58065A84214BF0725062505FA99
:102350000CF545EA0E05BD601568F74314F4803F9F
:102360000CBF3D4035431560556814F4003F0CBF69
:102370003D4035435560956814F4801F0CBF3D40C7
:1023800035439560D568A40254BF3D403543D560C0
:10239000013349E70025DAE70125D8E70225D6E72A
:1023A0000325D4E70425D2E70525D0E70004014042
:1023B00000040048001002400AB181617047816248
:1023C000704700002DE9F347054618B9012002B017
:1023D000BDE8F0870368DF0711D42B689E0700F182
:1023E00088802B681C0700F1FC802B68580700F1DF
:1023F0004581AA69002A40F0DC810020E7E7BD4C56
:10240000636803F00C03042B0AD0636803F00C0329
:10241000082B19D1636803F4C033B3F5803F13D19F
:102420004FF4003393FAA3F2216893FAA3F3B3FABB
:1024300083F303F01F03012202FA03F30B42CCD013
:102440006B68002BC9D1C1E76B68B3F5803F1ED123
:10245000236843F480332360FFF76AFD4FF40036AE
:102460008046012796FAA6F3226896FAA6F3B3FAF5
:1024700083F303F01F0307FA03F31342ADD1FFF711
:1024800057FDA0EB08006428ECD903209FE70BBBA5
:10249000236823F480332360236823F4802323609C
:1024A000FFF746FD4FF400368046012796FAA6F363
:1024B000226896FAA6F3B3FA83F303F01F0307FA30
:1024C00003F3134289D0FFF733FDA0EB0800642823
:1024D000ECD9DAE7B3F5A02F236803D143F48023C6
:1024E0002360B5E723F480332360236823F480233B
:1024F000B1E7804C636813F00C0F0AD0636803F0F7
:102500000C03082B25D1636803F4C033B3F5004FE7
:102510001FD1022393FAA3F2216893FAA3F3B3FA2B
:1025200083F303F01F03012202FA03F30B4203D0EB
:10253000EB6893427FF44AAF2168F82393FAA3F340
:10254000B3FA83F22B69934021F0F802134323601E
:1025500047E7EA6801260AB396FAA6F3B3FA83F3CB
:1025600003F1845303F584139B0002271E60FFF7D9
:10257000DFFC804697FAA7F3226897FAA7F3B3FA2D
:1025800083F303F01F0306FA03F31342D4D1FFF7DA
:10259000CFFCA0EB08000228ECD976E796FAA6F368
:1025A000B3FA83F303F1845303F584139B000227EA
:1025B0001A60FFF7BDFC804697FAA7F3226897FAE6
:1025C000A7F3B3FA83F303F01F0306FA03F31342EE
:1025D0003FF407AFFFF7ACFCA0EB08000228EBD9F3
:1025E00053E76A69434E444901241AB394FAA4F3A9
:1025F000B3FA83F30B449B0002271C60FFF798FC9F
:10260000804697FAA7F397FAA7F397FAA7F3726AA7
:1026100097FAA7F3B3FA83F303F01F0304FA03F363
:1026200013427FF4E2AEFFF783FCA0EB0800022820
:10263000E7D92AE794FAA4F3B3FA83F30B449B0097
:1026400002271A60FFF774FC804697FAA7F397FAFF
:10265000A7F397FAA7F3726A97FAA7F3B3FA83F38B
:1026600003F01F0304FA03F313423FF4BEAEFFF777
:102670005FFCA0EB08000228E7D906E71D4CE369E0
:10268000D90034D4E36943F08053E361E36903F094
:1026900080530193019B0126184F3B68DA052FD523
:1026A000AB68012B3DD1236A43F001032362FFF79E
:1026B0003FFC02278246B9464FF0010897FAA7F37C
:1026C00097FAA7F3002B6CD0226A99FAA9F3B3FA10
:1026D00083F303F01F0308FA03F3134258D0002ECC
:1026E0003FF487AEE36923F08053E36181E600267F
:1026F000D2E700BF0010024020819010007000401F
:102700003B6843F480733B60FFF712FC80463B68F4
:10271000DB05C5D4FFF70CFCA0EB08006428F6D954
:10272000B3E63BBB236A23F001032362236A23F051
:1027300004032362FFF7FCFB02278246B9464FF0F1
:10274000010897FAA7F397FAA7F373B3226A99FAE5
:10275000A9F3B3FA83F303F01F0308FA03F3134258
:10276000BDD0FFF7E5FB41F28833A0EB0A009842A9
:10277000E7D98AE6052B236A03D143F004032362D9
:1027800091E723F001032362236A23F004038DE71A
:10279000FFF7CEFB41F28833A0EB0A0098428DD9B7
:1027A00073E697FAA7F3626A8FE797FAA7F3626A6C
:1027B000CDE7444C636803F00C03082B3FF406AEEE
:1027C000022A4FF0807358D193FAA3F3B3FA83F33C
:1027D00003F1845303F584139B0000221A60FFF772
:1027E000A7FB4FF000778046012697FAA7F32268EF
:1027F00097FAA7F3B3FA83F303F01F0306FA03F380
:10280000134233D1E36A6A6A23F00F031343E3628E
:1028100062682B6AE96922F476120B431343636002
:102820004FF0807393FAA3F3B3FA83F303F1845365
:1028300003F584139B004FF000751E60FFF778FBD3
:102840000126074695FAA5F3226895FAA5F3B3FA8F
:1028500083F303F01F0306FA03F313427FF4CDADB5
:10286000FFF766FBC01B0228ECD90EE6FFF760FB02
:10287000A0EB08000228B8D907E693FAA3F3B3FA4D
:1028800083F303F1845303F584139B0000221A6041
:10289000FFF74EFB4FF000750746012695FAA5F3AA
:1028A000226895FAA5F3B3FA83F303F01F0306FA3F
:1028B00003F313423FF4A1ADFFF73AFBC01B02281C
:1028C000ECD9E2E50010024011494B6803F00C021C
:1028D000082A1AD14FF4701292FAA2F20F20B2FA1B
:1028E00082F2C96A90FAA0F0B0FA80F001F00F010C
:1028F00003F47013D340C140064A0748415C0748BF
:10290000B0FBF1F1D05C484370470448704700BF0A
:1029100000100240E88D0208F88D020800127A00CB
:102920002DE9F0410D46044610B90120BDE8F081C3
:102930004C4A136803F007038B422ED32268910799
:1029400036D4D2073CD4474A136803F007039D42AC
:1029500075D32268444D12F0040F7CD1130706D5BD
:102960006B68226923F4605343EAC2036B60FFF78C
:10297000ABFF6B68F02292FAA2F2B2FA82F203F095
:10298000F003D340394AD35CD840394B186000205B
:10299000FFF78CFA0020BDE8F081136823F00703ED
:1029A0000B431360136803F007039942BDD1C5E7D9
:1029B0002D49A0684B6823F0F00303434B60C0E748
:1029C0006268294E012A27D14FF4003393FAA3F10C
:1029D000316893FAA3F3B3FA83F303F01F0302FA07
:1029E00003F30B42A1D0736823F003031A43726010
:1029F000FFF79EFA41F2883807467368626803F071
:102A00000C03B3EB820F9ED0FFF792FAC01B404538
:102A1000F3D90320BDE8F081022A0CBF4FF0007308
:102A2000022393FAA3F1306893FAA3F3B3FA83F382
:102A300003F01F03012101FA03F30342D2E71368F5
:102A400023F007032B431360136803F007039D4231
:102A50007FF46BAF7DE76B68E16823F4E0630B43C1
:102A60006B607BE700200240001002400C8E0208E1
:102A700030000020084B4FF4E0625B6892FAA2F24B
:102A8000B2FA82F203F4E063D340044AD35C044A0E
:102A90001068D840704700BF001002401C8E02082A
:102AA00030000020084B4FF460525B6892FAA2F2AB
:102AB000B2FA82F203F46053D340044AD35C044A6E
:102AC0001068D840704700BF001002401C8E0208FA
:102AD0003000002003682DE9F347DF03044623D5C7
:102AE0009B4DEB69DE0000F1D780EB6943F080532A
:102AF000EB61EB6903F080530193019B0126954F35
:102B00003B68D80540F1CA802B6A13F4407340F04B
:102B1000DA802B6A626823F4407313432B621EB180
:102B2000EB6923F08053EB612068C30706D5884A20
:102B3000A168136B23F003030B431363870706D5C8
:102B4000834AE168136B23F440330B431363460756
:102B500006D57F4A2169136B23F440230B4313638B
:102B6000850606D57A4AE169136B23F010030B43FF
:102B70001363810306D5764A616D536823F480039D
:102B80000B435360420606D5714A216A136B23F04A
:102B900020030B431363430306D56D4A616A136B2D
:102BA00023F040030B431363070706D5684A6169A6
:102BB000136B23F440130B431363C60606D5644A14
:102BC000A169136B23F440030B431363850506D5FA
:102BD0005F4A216B536823F400030B4353600106E3
:102BE00006D55B4AA16AD36A23F4F8730B43D36218
:102BF000C20506D5564AE16AD36A23F478530B43DB
:102C0000D362C30406D5524A616B136B23F48073FD
:102C10000B431363870406D54D4A216C136B23F4D1
:102C200000730B431363C60206D5494AA16B136BAD
:102C300023F080730B431363850206D5444AE16B8E
:102C4000136B23F000730B431363410206D5404A14
:102C5000616C136B23F480630B431363020206D58C
:102C60003B4AA16C136B23F400630B431363C30152
:102C700006D5374AE16C136B23F400530B431363FF
:102C800010F000701CD0324A216D136B23F4004306
:102C90000B431363002013E0002630E73B6843F446
:102CA00080733B60FFF744F980463B68D9053FF5E8
:102CB0002BAFFFF73DF9A0EB08006428F5D90320FE
:102CC00002B0BDE8F087626802F4407293423FF4BC
:102CD00020AF296A4FF4803321F4407093FAA3F2B5
:102CE000DFF874E0B2FA82F27244920001271760B2
:102CF00093FAA3F3B3FA83F373449B0000221A60A0
:102D0000CA0728627FF505AFFFF712F94FF00208F6
:102D10008246C14698FAA8F398FAA8F3A3B12A6AA2
:102D200099FAA9F3B3FA83F303F01F0307FA03F345
:102D300013427FF4EEAEFFF7FBF841F28833A0EBCD
:102D40000A009842E6D9BAE798FAA8F36A6AE7E770
:102D500000100240007000400081901003685A6823
:102D600022F0E0025A604268B2F5827F0AD182689E
:102D7000B2F5004F02D0B2F5806F03D11A6822F08D
:102D800040021A60826AB2F5005F07D11A6822F425
:102D900000521A601A6842F400521A60012380F847
:102DA0005D30002380F85C300320704770B5054625
:102DB0000C4616462B68986810F080000DD0621CF7
:102DC000F9D024B92846BDE87040FFF7C7BFFFF728
:102DD000AFF8801B8442EDD8F4E770BDF7B5064626
:102DE0000C4615461F463168886820400ED0B4F561
:102DF000C06F01BF0A7BD2B28DF807209DF8073063
:102E00006B1CF1D025B93046FFF7A8FF03B0F0BD29
:102E1000FFF78EF8C01B8542E5D8F4E770B513467E
:102E20000D4616460A464FF4C0510446FFF7D6FF3A
:102E300028B1236E43F02003236603200FE03246BF
:102E400029462046FFF7B2FF0028F2D133462A4632
:102E50004FF4C0612046FFF7C1FF0028E9D170BDE3
:102E600070B5044600284ED00023836290F85D3090
:102E700003F0FF021BB980F85C2001F06BFE022317
:102E8000216884F85D300B68E26823F04003B2F5F6
:102E9000E06F0B604FF0000332D91846B2F5706F47
:102EA00018BFA362236B2BB9B2F5E06F8CBF02236E
:102EB00001232363A6686368A56933432669334306
:102EC00066693343E6693343266A3343A66A33436C
:102ED00005F4007633430B60636A1A43636B2D0C71
:102EE0001A4305F004052A4302434A60CB6923F4E0
:102EF0000063CB6100200123206684F85D3070BD43
:102F00004FF48050CCE7012070BD2DE9F3411E46FF
:102F100090F85C30012B04460D46904600F0B180DD
:102F2000012380F85C30FFF703F8074694F85D0052
:102F3000C0B2012840F0A380002D57D0B8F1000F97
:102F400054D0032384F85D30002323662364A4F85F
:102F50003E80A4F84430A4F846302365E364A368B7
:102F60002068A563B3F5004F08BF0368A4F83C8050
:102F700004BF43F48043036003685B065EBF0368DD
:102F800043F040030360E368B3F5E06F63683ED944
:102F90001BB1E38F9BB2012B06D135F8023BC36016
:102FA000E38F013B9BB2E387E38F9BB2A3B93A4621
:102FB00031462046FFF732FF00285DD1A36833B9C0
:102FC00001932368DA6801929B680193019B206E4C
:102FD000003018BF012009E023689A68900703D5E4
:102FE00035F8022BDA60DBE74EB90320012384F8C1
:102FF0005D30002384F85C3002B0BDE8F081711CC4
:10300000D2D0FEF795FFC01B8642CDD8EDE71BB1AD
:10301000E38F9BB2012B0AD1E38F9BB2012B16D910
:1030200035F8023BC360E38F023B9BB2E387E38F3B
:103030009BB2002BBBD023689A68920712D5E28F0F
:1030400092B2012A0BD935F8022BDA60EBE72B7824
:103050000373E38F013B9BB2E3870135E7E72A78EF
:103060001A73F6E7002EC0D0731CE0D0FEF760FFA5
:10307000C01B8642DBD8B8E7202323669EE70220E8
:10308000B4E70220B8E77047036830B559689A681A
:1030900002F04105012D85B0044605D14D0603D54A
:1030A000C36C984705B030BD950704D5080602D516
:1030B000236D2046F5E712F4B07FF3D08D06F1D5ED
:1030C00050060FD594F85D0003284FF0000541D05D
:1030D000206E40F0040020660095D8680090986843
:1030E0000090009895060CD5206E40F001002066F7
:1030F0000020029098680290186820F04000186044
:103100000298D00508D5226E42F0080222660022FD
:1031100003929A680392039A226E002AC2D05A68D8
:1031200022F0E0025A60012284F85D208A0718D05C
:103130005A68A06D22F003025A6018B10B4B43632A
:10314000FEF7FEFF606D0028ACD0084B4363FEF72E
:10315000F7FFA7E70195DA6801929B680193019B4D
:10316000A0E72046FFF78FFF9CE700BF7131000802
:1031700008B5406A0023A0F84630C387FFF783FFF5
:1031800008BD03681A6822F490721A609A6822F0E7
:1031900001029A60202380F86A307047134690F845
:1031A0006A20202A70B5044633D100292FD0002B85
:1031B0002DD090F86820012A2BD00122002580F81C
:1031C00068202222C5664165A0F8583080F86A2040
:1031D000406E114A26688262104AC262104A026337
:1031E00045630A4606F12401FEF76DFF236884F863
:1031F00068501A6842F480721A609A6842F00102BC
:103200009A609A6842F040029A60284670BD012098
:1032100070BD022070BD00BF273200086332000875
:103220006F320008704708B50368426A1B6813F0E4
:10323000200311D1A2F85A301368196821F4807163
:103240001960996821F001019960996821F04001A5
:103250009960202382F86A30104601F059FB08BDBE
:10326000704708B5406AFFF7FBFF08BD7047416A29
:1032700008B591F86930212B0DD10B689A681206B8
:1032800009D50022A1F852201A6822F0C0021A6063
:10329000202381F8693091F86A30222B09D10B681C
:1032A0009B685B0605D50023A1F85A300846FFF756
:1032B00068FFCB6E43F01003CB660846FFF7D6FFDE
:1032C00008BD08B5406A0023A0F85A30A0F8523073
:1032D000FFF7CCFF08BD000038B50446056821693A
:1032E000A268C36928680A4361690A4377491A4397
:1032F00001400A432A606A68E168206A22F4405269
:103300000A436A60A968A26921F4306102430A4352
:10331000AA606F4A954212D102F558426D49126B6C
:1033200002F00302B3F5004F8A5C66D0082A19D870
:10333000DFE802F0C2929E18A9181818AC00664A7D
:10334000954224D102F5E632126B02F44032B2F516
:10335000803F00F0A08007D8002A00F0AA80B3F5D3
:10336000004F76D0012038BDB2F5003F00F09980C3
:10337000B2F5403FF3D1B3F5004F79D1606843080F
:1033800003F5740303F51053B3FBF0F354E0534A11
:1033900095420ED102F5E432126B02F44022B2F5EE
:1033A000802F78D0D8D9B2F5002F7AD0B2F5402F3F
:1033B000E0E74B4A95420ED102F5E232126B02F47D
:1033C0004012B2F5801F66D0C6D9B2F5001F68D092
:1033D000B2F5401FCEE7434A9542C0D102F5E03234
:1033E000126B02F44002B2F5800F54D0B4D9B2F59A
:1033F000000F56D0B2F5400FBCE7082A29D801A328
:1034000053F822F0293400084D3400087D330008B9
:10341000533400089D340008533400085334000826
:1034200053340008A9340008FFF724FB61684A08F8
:1034300002EB4003B3FBF1F39BB2002023F00F0239
:103440002168C3F342031343CB6038BDFFF72AFB67
:10345000ECE701200023F1E7FFF724FB636800EBB2
:103460005300B0FBF3F01A4B80B2D860002038BD97
:103470006268530803F5F40303F59053B3FBF2F3CA
:103480009BB2EB60F2E7FFF71FFA17E062685308A0
:1034900003F50043F2E7B3F5004FF4D1FFF714FA58
:1034A000C4E7B3F5004FF1D16068430803F58033FA
:1034B0006AE7B3F5004FB7D0FFF7DCFA636800EBBB
:1034C0005300B0FBF3F080B2E860CFE7F369FFEFA1
:1034D00000380140088E02080044004000480040C7
:1034E000004C004000500040436ADA0710B506D592
:1034F0000168846A4A6822F4003222434A609C07C9
:1035000006D50168C46A4A6822F4803222434A60C0
:10351000590706D50168046B4A6822F480222243C9
:103520004A601A0706D50168446B4A6822F40042D3
:1035300022434A60DC0606D50168846B8A6822F45F
:10354000805222438A60990606D50168C46B8A6856
:1035500022F4005222438A605A060FD50168046C97
:103560004A6822F480122243B4F5801F4A6005D1D4
:103570004A68446C22F4C00222434A601B0606D506
:103580000268816C536823F400230B43536010BD21
:103590002DE9F041069D04460F46164698462168DF
:1035A000CA6937EA02030CBF01220022B24202D0EC
:1035B0000020BDE8F0816B1CF2D09DB923681A6829
:1035C00022F4D0721A609A6822F001029A602023D5
:1035D00084F8693084F86A30002384F86830032066
:1035E000BDE8F081FEF7A4FCA0EB08008542D6D22E
:1035F000E4E773B504460026C666FEF799FC236827
:103600001B681A07054617D423681B685B070AD591
:103610006FF07E43009300222B464FF4800120463A
:10362000FFF7B6FFA0B92023002084F8693084F8A2
:10363000680084F86A300CE06FF07E4300933246F5
:1036400003464FF400112046FFF7A2FF0028DBD00D
:10365000032002B070BD10B5044660B390F8693025
:1036600003F0FF021BB980F8682001F0ABFB226871
:10367000242384F86930136823F001031360204683
:10368000FFF72AFE012816D0636A13B12046FFF720
:103690002BFF23685A6822F490425A609A6822F0FD
:1036A0002A029A601A6842F0010220461A60BDE8B8
:1036B0001040FFF79EBF012010BD90F86930212B0C
:1036C00027D1B0F8523002689BB24BB9116821F093
:1036D00080011160116841F04001116000207047C5
:1036E0008368B3F5805FC36C0ED1016961B933F8AB
:1036F000021BC1F308011185C364B0F85230013BCD
:103700009BB2A0F85230E9E7591CC1641B781385BD
:10371000F3E702207047016808B50B6823F0400307
:103720000B60202380F86930FFF77CFD002008BD86
:1037300090F86A30222B10B5036829D1998C8368E0
:10374000B0F85C20B3F5805F02EA0102436D1BD143
:103750000169C9B923F8022B4365B0F85A40013C0E
:10376000A4B2A0F85A406CB903681A6822F49072A7
:103770001A609A6822F001029A60202380F86A3069
:1037800001F0C6F8002010BD591C41651A70E4E72D
:103790009A6942F008029A61022010BD0268D3695A
:1037A000116870B513F00F05044607D19E0605D5C4
:1037B0008E0603D5BDE87040FFF7BABF9068002DB4
:1037C0005CD010F0010502D111F4907F56D0D807DB
:1037D00007D5CE0505D501201062E06E40F001004E
:1037E000E066980706D52DB102201062E06E40F029
:1037F0000400E0665E0706D52DB104201062E06E7D
:1038000040F00200E066180707D58E0600D425B107
:1038100008201062E26E0243E266E26E002A50D097
:10382000980604D58A0602D52046FFF781FFE36E8D
:103830001B07204604D423689D6815F0400519D065
:10384000FFF79FFC23689A6856060FD59A68606E4A
:1038500022F040029A6048B11A4B4363FEF770FCB5
:1038600078B3606EBDE87040436B18472046FFF7A1
:10387000FDFC70BDFFF7FAFCE56670BDDD020ED5FC
:1038800046020CD54FF480131362202384F869306C
:10389000204684F86A30BDE8704000F015B81D0677
:1038A00006D5080604D52046BDE87040FFF705BFE1
:1038B0005A0606D54B0604D52046BDE87040FFF7F2
:1038C0002ABF70BDC3320008704700002DE9F041E7
:1038D000CAB002AF3B1D1860102001F00DFB03467B
:1038E0001C46204600F09CFA3B1D1B685C613B1D9A
:1038F0001B685C6907F12003184601F0A1FF07F17E
:10390000200207F10803E949184608F041FA07F1D7
:10391000080507F13C03184601F092FF07F13C024D
:1039200007F12403E249184608F032FA07F12406A9
:10393000382001F0E1FA034698460023009333460D
:1039400007222946404600F089FB4146204600F008
:10395000BDFA07F12403184607F049FF07F13C03BD
:10396000184601F06EFF07F10803184607F03FFF05
:1039700007F12003184601F064FF3B1D1B685C69DA
:1039800007F15803184601F05BFF07F1580207F1F1
:103990004003C849184608F0FBF907F1400507F154
:1039A0007403184601F04CFF07F1740207F15C0341
:1039B000C149184608F0ECF907F15C06382001F01F
:1039C0009BFA034698460123009333460222294678
:1039D000404600F043FB4146204600F077FA07F1ED
:1039E0005C03184607F003FF07F17403184601F063
:1039F00028FF07F14003184607F0F9FE07F15803C6
:103A0000184601F01EFF3B1D1B685C6907F190031F
:103A1000184601F015FF07F1900207F17803A74956
:103A2000184608F0B5F907F1780507F1AC03184618
:103A300001F006FF07F1AC0207F19403A049184614
:103A400008F0A6F907F19406382001F055FA03466C
:103A5000984601230093334664222946404600F0ED
:103A6000FDFA4146204600F031FA07F1940318466A
:103A700007F0BDFE07F1AC03184601F0E2FE07F1C6
:103A80007803184607F0B3FE07F19003184601F0DB
:103A9000D8FE3B1D1B685C6907F1C803184601F09E
:103AA000CFFE07F1C80207F1B0038649184608F0B7
:103AB0006FF907F1B00507F1E403184601F0C0FE05
:103AC00007F1E40207F1CC037F49184608F060F9DA
:103AD00007F1CC06382001F00FFA03469846002380
:103AE0000093334603222946404600F0B7FA414688
:103AF000204600F0EBF907F1CC03184607F077FEFB
:103B000007F1E403184601F09CFE07F1B0031846E4
:103B100007F06DFE07F1C803184601F092FE3B1D49
:103B20001B685C6907F58073184601F089FE07F58C
:103B3000807207F1E8036549184608F029F907F192
:103B4000E80507F58E73184601F07AFE07F58E72C8
:103B500007F582735E49184608F01AF907F5827670
:103B6000382001F0C9F903469846002300933346F4
:103B700014222946404600F071FA4146204600F0E2
:103B8000A5F907F58273184607F031FE07F58E7325
:103B9000184601F056FE07F1E803184607F027FE25
:103BA00007F58073184601F04CFE3B1D186800F0C5
:103BB000AFF83B1D1B68A5E0204601F096F901F027
:103BC000ACF9404601F091F9FFE707F124031846EC
:103BD00007F00DFEFFE707F13C03184601F031FE48
:103BE00007F10803184607F002FEFFE707F120037C
:103BF000184601F026FE01F090F9404601F075F9F3
:103C0000FFE707F15C03184607F0F1FDFFE707F156
:103C10007403184601F015FE07F14003184607F03B
:103C2000E6FDFFE707F15803184601F00AFE01F030
:103C300074F9404601F059F9FFE707F1940318467B
:103C400007F0D5FDFFE707F1AC03184601F0F9FDD9
:103C500007F17803184607F0CAFDFFE707F1900364
:103C6000184601F0EEFD01F058F9404601F03DF92B
:103C7000FFE707F1CC03184607F0B9FDFFE707F1AE
:103C8000E403184601F0DDFD07F1B003184607F024
:103C9000AEFDFFE707F1C803184601F0D2FD01F0C1
:103CA0003CF9404601F021F914E000BF485F0208EA
:103CB000545F0208585F0208645F0208685F0208E8
:103CC000745F0208785F0208845F0208885F020858
:103CD000945F020807F58273184607F088FDFFE736
:103CE00007F58E73184601F0ACFD07F1E80318469E
:103CF00007F07DFDFFE707F58073184601F0A1FD91
:103D000001F00BF9184607F59077BD46BDE8F08144
:103D100080B582B000AF78607B685B69184600F0C0
:103D200007F90346184600F01BFA00BF0837BD46E6
:103D300080BD000080B582B000AF786039607B68DC
:103D4000012B0CD13B684FF6FF72934207D1064816
:103D500001F0C0FC054A0649034801F0C8F800BF5D
:103D60000837BD4680BD00BFF002002000000020E3
:103D7000ED57000880B500AF4FF6FF710120FFF747
:103D8000D9FF80BD90B583B000AF7860182001F0F6
:103D9000B3F803461C462046FFF798FD7B681C607D
:103DA0007B6800225A717B68043301221946074858
:103DB000FFF7F4F97B6804E0204601F096F801F083
:103DC000ACF818460C37BD4690BD00BF241E00203D
:103DD00080B582B000AF786039607B68012B0CD170
:103DE0003B684FF6FF72934207D1064801F072FC20
:103DF000054A0649034801F07AF800BF0837BD4676
:103E000080BD00BFF402002000000020ED57000834
:103E100080B500AF4FF6FF710120FFF7D9FF80BDDD
:103E200080B483B000AF78607B6800229A817B68A1
:103E300018460C37BD465DF8047B704780B483B0EC
:103E400000AF786039607B683A685A607B685A686E
:103E50007B681A607B681A687B689A607B689B89BC
:103E600001339AB27B689A8100BF0C37BD465DF87A
:103E7000047B704780B582B000AF786039607B68A2
:103E80005B683968184600F098F87B689B68396869
:103E9000184600F0A0F87B685B681946386800F0A7
:103EA0009AF87B683A685A607B685A687B689B68B6
:103EB0001946104600F081F87B689B8901339AB25D
:103EC0007B689A8100BF0837BD4680BD90B583B03E
:103ED00000AF786039607B689B89002B0DD10C2086
:103EE00001F00AF803461C463968204600F056F8EF
:103EF00021467868FFF7A2FF17E00C2000F0FCFFD6
:103F000003461C463968204600F048F82146786888
:103F1000FFF7B0FF09E0204600F0E7FF00F0FDFFEB
:103F2000204600F0E2FF00F0F8FF0C37BD4690BDE0
:103F300080B582B000AF78607B681B68184600F0DF
:103F400058F8034618460837BD4680BD80B582B094
:103F500000AF786039607B68012B0CD13B684FF66D
:103F6000FF72934207D1064801F0B4FB054A0649A7
:103F7000034800F0BCFF00BF0837BD4680BD00BF4E
:103F8000F802002000000020ED57000880B500AFC7
:103F90004FF6FF710120FFF7D9FF80BD80B483B0D9
:103FA00000AF786039607B683A689A607B68184631
:103FB0000C37BD465DF8047B704780B483B000AF1A
:103FC000786039607B683A681A6000BF0C37BD467C
:103FD0005DF8047B704780B483B000AF78603960CF
:103FE0007B683A685A6000BF0C37BD465DF8047BB9
:103FF000704780B483B000AF78607B689B681846D8
:104000000C37BD465DF8047B7047000080B582B078
:1040100000AF786039607B68012B0CD13B684FF6AC
:10402000FF72934207D1064801F054FB054A064946
:10403000034800F05CFF00BF0837BD4680BD00BFED
:10404000FC02002000000020ED57000880B500AF02
:104050004FF6FF710120FFF7D9FF80BD80B584B016
:1040600000AFF860B9607A603B60FB68184607F003
:10407000B7FBFB681C33184607F0B2FBFB68B96856
:10408000184607F0BAFBFB687A689A61FB681C3334
:104090003968184607F0B1FBFB683A7E83F8352093
:1040A000FB68002283F83420FB680BE0FB681C33BC
:1040B000184607F09CFBFFE7FB68184607F097FBE4
:1040C00000F02BFF18461037BD4680BD2DE9F043A8
:1040D00087B000AF786039606B461E46386807F0DD
:1040E000B7FB03463B613B69013BFB603B691A46FA
:1040F0004FF000034FEAC30949EA52794FEAC20878
:104100003B691A464FF00003DD0045EA5275D400C2
:104110003B690733DB08DB00ADEB030D6B46003377
:10412000BB6000237B617A693B699A4211DA7B6943
:104130001946386807F0C0FB03461B78303BD9B2FC
:10414000BA687B6913440A461A707B6901337B6144
:10415000E9E70023B54618461C37BD46BDE8F083A5
:1041600080B58AB002AF78600A2205211C4800F0B1
:10417000CAFA7A6807F108031146184607F0D6FD17
:1041800007F1080319467868FFF7A0FF0146154BB1
:10419000002200920CCB124800F088FA07F10803C5
:1041A000184607F024FB1E2205210D4800F0ABFA4B
:1041B0007B6803F118010B4B002200920CCB0848DE
:1041C00000F074FA064800F05DF906E007F1080314
:1041D000184607F00CFB00F0A0FE2037BD4680BD5E
:1041E000100700200C00002080B582B000AF78607E
:1041F00039607B68012B0CD13B684FF6FF7293420C
:1042000007D1064801F066FA054A0649034800F05E
:104210006EFE00BF0837BD4680BD00BF0003002012
:1042200000000020ED57000880B500AF4FF6FF7189
:104230000120FFF7D9FF80BD80B582B000AF786064
:1042400001224FF480510D48FEF7B6F800224FF4DA
:1042500080714FF09040FEF7AFF80A20FDF76EFE38
:1042600001224FF480714FF09040FEF7A5F80A202C
:10427000FDF764FE00BF0837BD4680BD000400485E
:1042800080B582B000AF78600B46FB7000224FF41F
:1042900080510D48FEF790F800224FF480410A4803
:1042A000FEF78AF8F91C4FF0FF3301220748FEF7AA
:1042B0002CFE01224FF480510348FEF77DF800BF29
:1042C0000837BD4680BD00BF000400487C1D0020AB
:1042D00080B584B000AFF860B9607A6000224FF416
:1042E00080510D48FEF768F801224FF480410A48DA
:1042F000FEF762F87B689AB24FF0FF33B96807485F
:10430000FEF703FE01224FF480510348FEF754F8F4
:1043100000BF1037BD4680BD000400487C1D002052
:1043200080B582B000AF78607868FFF785FF6420C1
:10433000FDF704FEAE217868FFF7A2FF2021786820
:10434000FFF79EFF00217868FFF79AFFB021786899
:10435000FFF796FFC8217868FFF792FF0021786881
:10436000FFF78EFF10217868FFF78AFF40217868F9
:10437000FFF786FF81217868FFF782FFFF217868C9
:10438000FFF77EFFA1217868FFF77AFFA621786802
:10439000FFF776FFA8217868FFF772FF3F21786862
:1043A000FFF76EFFA4217868FFF76AFFD3217868D2
:1043B000FFF766FF00217868FFF762FFD521786874
:1043C000FFF75EFFF0217868FFF75AFFD921786880
:1043D000FFF756FF22217868FFF752FFDA2178684D
:1043E000FFF74EFF12217868FFF74AFFDB2178685C
:1043F000FFF746FF20217868FFF742FF8D2178689C
:10440000FFF73EFF14217868FFF73AFFAF21786885
:10441000FFF736FF0021786800F010F8786800F0A8
:1044200031F87B6800229A807B680022DA807B6802
:1044300001225A7200BF0837BD4680BD80B485B0E6
:1044400000AF78600B46FB700023FB60FB68B3F5A0
:10445000806F0ED2FB78002B01D1002100E0FF21FC
:10446000074AFB6813440A461A70FB680133FB6075
:10447000ECE700BF1437BD465DF8047B704700BF12
:104480000803002080B584B000AF78600023FB7380
:10449000FB7B072B1BDCFB7B503BDBB219467868B0
:1044A000FFF7EEFE00217868FFF7EAFE102178683A
:1044B000FFF7E6FEFB7BDB01074A13448022194627
:1044C0007868FFF705FFFB7B0133FB73E0E700BF74
:1044D0001037BD4680BD00BF0803002080B483B004
:1044E00000AF7860084611461A460346FB700B463B
:1044F000BB7013467B70FB787F2B48DCBB783F2B6F
:1045000045DC7B681B7A002B06D07B78002B0CBF28
:1045100001230023DBB27B707B78012B1AD1FA7860
:10452000BB78DB08D8B20346DB011344F9780246B6
:10453000D2010A4419498A5C51B2BA7802F00702E2
:10454000012000FA02F252B20A4352B2D1B2134A27
:10455000D1541DE0FA78BB78DB08D8B20346DB0102
:104560001344F9780246D2010A440C498A5C51B2DC
:10457000BA7802F00702012000FA02F252B2D243E6
:1045800052B20A4052B2D1B2044AD15400E000BF44
:104590000C37BD465DF8047B704700BF0803002060
:1045A00080B588B000AFF8600846394681E80C0055
:1045B0000346FB72FB7A1F2B02DDFB7A7E2B01DDAB
:1045C00000236FE0FB689B881A463B781344802BDE
:1045D00006DCFB68DB881A467B781344402B01DD40
:1045E00000235FE00023FB617B781A46FB699A4257
:1045F0004FD97A68FB7A203B797801FB03F319469F
:10460000FB690B445B0013441B887B610023BB6187
:104610003B781A46BB699A4237D97A69BB6902FA74
:1046200003F303F40043002B13D0FB689B88DAB23A
:10463000BB69DBB21344D9B2FB68DB88DAB2FB6931
:10464000DBB21344DAB297F82830F868FFF746FF78
:1046500017E0FB689B88DAB2BB69DBB21344D9B2BE
:10466000FB68DB88DAB2FB69DBB21344DAB297F895
:104670002830002B0CBF01230023DBB2F868FFF7C2
:104680002DFFBB690133BB61C2E7FB690133FB61ED
:10469000AAE7FB689A883B789BB213449AB2FB68FE
:1046A0009A80FB7A18462037BD4680BD80B586B01B
:1046B00002AFF860B960394681E80C00BB681B782E
:1046C000002B1AD0BB6819783B7E00933B460CCB7D
:1046D000F868FFF765FF03461A46BB681B789A42E5
:1046E00014BF01230023DBB2002B02D0BB681B7870
:1046F00005E0BB680133BB60E0E7BB681B78184688
:104700001037BD4680BD80B483B000AF78600B46E3
:10471000FB701346BB70FB789AB27B689A80BB78BB
:104720009AB27B68DA8000BF0C37BD465DF8047B27
:104730007047000080B483B000AF7860044A7B68A3
:104740001A607B6818460C37BD465DF8047B7047DD
:10475000A05F020880B483B000AF7860044A7B6831
:104760001A607B6818460C37BD465DF8047B7047BD
:10477000A05F020880B582B000AF78607868FFF76C
:10478000E9FF786800F0B1FB7B6818460837BD4642
:1047900080BD000080B582B000AF786039607B6872
:1047A000012B0CD13B684FF6FF72934207D10648AC
:1047B00000F090FF054A0649034800F098FB00BF4F
:1047C0000837BD4680BD00BF040300200000002064
:1047D000ED57000880B500AF4FF6FF710120FFF7DD
:1047E000D9FF80BD80B582B000AF786039607B684A
:1047F000012B0CD13B684FF6FF72934207D106485C
:1048000000F068FF054A0649034800F070FB00BF4E
:104810000837BD4680BD00BF08070020000000200B
:10482000ED57000880B500AF4FF6FF710120FFF78C
:10483000D9FF80BD124B07B55A6942F001025A6197
:104840005B69002203F00103114601930F20019BD5
:10485000FDF79AFB0F20FDF7CBFB0022114610203D
:10486000FDF792FB1020FDF7C3FB0022114611203B
:10487000FDF78AFB1120FDF7BBFB03B05DF804FBDD
:104880000010024070B588B01422002103A81AF06D
:104890007FFB1D4B1D4E5A6942F400325A615A6922
:1048A00002F400320192019A5A6942F480225A615C
:1048B0005B6903F480230293304600224FF4A04149
:1048C000029BFDF779FD00224FF480714FF090407C
:1048D000FDF772FD00244FF4A043012503A93046E3
:1048E0000393049505940694FDF796FC4FF48073AA
:1048F00003A94FF090400393049505940694FDF7A7
:104900008BFC08B070BD00BF0010024000040048DE
:1049100080B483B000AF786000BF0C37BD465DF84F
:10492000047B704780B582B002AFFDF7E3FA00F078
:1049300049F8FFF7A7FFFFF77DFF00F0E5F800F06B
:1049400023FA1D48FFF7ECFC01211B48FFF776FD19
:104950001A4B002200920CCB19491748FFF7A6FE0C
:104960000F2200211448FFF7CEFE144B00220092C4
:104970000CCB13491048FFF799FE1E2200210E4868
:10498000FFF7C1FE0D4B002200920CCB0C490A48E8
:10499000FFF78CFE2D2200210748FFF7B4FE074BDE
:1049A000002200920CCB06490348FFF77FFE024825
:1049B000FFF768FDFEE700BF100700200C00002095
:1049C000C08D020880B5A6B000AF07F170032822A1
:1049D000002118461AF0DCFA07F15C0300221A6085
:1049E0005A609A60DA601A613B1D5822002118460D
:1049F0001AF0CEFA02233B670123FB671023C7F8A6
:104A000080300023C7F8883007F170031846FDF79F
:104A1000D9FC0346002B14BF01230023DBB2002B7B
:104A200001D000F031F80F23FB6500233B66002323
:104A30007B664FF48063BB660023FB6607F15C0373
:104A400000211846FDF76CFF0346002B14BF01231D
:104A50000023DBB2002B01D000F016F802237B60AC
:104A600000233B613B1D1846FEF734F80346002B3C
:104A700014BF01230023DBB2002B01D000F004F8A7
:104A800000BF9837BD4680BD80B400AF00BFBD46B3
:104A90005DF8047B7047000080B582B000AF78609D
:104AA00039607B68012B17D13B684FF6FF72934248
:104AB00012D10B4800F00EFE0A4A0B49084800F0DC
:104AC00016FA0A48FFF736FE064A0949074800F079
:104AD0000EFA0848FFF756F900BF0837BD4680BDFB
:104AE0000C07002000000020ED57000810070020F0
:104AF000554700081C07002080B500AF4FF6FF7136
:104B00000120FFF7C9FF80BD1048114908B54FF4D7
:104B100082724FF400434FF4E06E80E80E400023B1
:104B20004FF40072036143618261C36103624362B7
:104B30008362072203630823C2624363FEF790F98E
:104B400018B1BDE80840FFF79FBF08BD7C1D0020DD
:104B50000038004030B5054689B01422002103A872
:104B60001AF016FA2A68214B9A423DD103F5EC332C
:104B70001F48DA691F4C42F48042DA61DA6902F4B4
:104B800080420192019A5A6942F480225A615B691B
:104B900003F480230293029B4FF4204303930223E8
:104BA00004930323069303A905230793FDF734FB1E
:104BB000114A102384E80C00204600238022A360C1
:104BC000E26023616361A361E361FDF755FA08B117
:104BD000FFF75AFF002224206C6511466562FDF73D
:104BE000D3F92420FDF704FA09B030BD00380040A5
:104BF00000040048E01D0020580002400A4B9A695A
:104C000042F001029A619A6982B002F001020092B8
:104C1000009ADA6942F08052DA61DB6903F080536E
:104C20000193019B02B07047001002407047FEE7FD
:104C3000FEE7FEE7FEE7704770477047FDF76CB987
:104C40000148FDF7A1BA00BFE01D00200148FDF7B3
:104C50009BBA00BF941E00200148FDF795BA00BF23
:104C6000D81E00200148FEF70FBA00BF7C1D0020AF
:104C70000148FEF793BD00BF241E002001207047AD
:104C800008B519F01FFC162303604FF0FF3008BD74
:104C900008B519F017FC16230360FEE770B50E4641
:104CA00015460C46A31B9D4201DC284670BDAFF3A0
:104CB000008004F8010BF5E770B50E4615460C466A
:104CC000A31B9D4201DC284670BD14F8010BAFF315
:104CD0000080F5E708B50A4B1968024609B9094989
:104CE00019601868694602448A4206D919F0EAFB3D
:104CF0000C2303604FF0FF3008BD1A6008BD00BFF1
:104D000028070020201F00204FF0FF3070474FF48D
:104D100000534B600020704701207047002070470F
:104D20001549D1F8883043F47003C1F88830134B2B
:104D30001A6842F001021A605868114A02405A602B
:104D40001A6822F0847222F480321A601A6822F4FF
:104D500080221A605A6822F4FE025A60DA6A22F04F
:104D60000F02DA62186B074A02401A6300229A6047
:104D70004FF000638B60704700ED00E000100240D0
:104D80000CC07FF8CCFC00FF08B50C480C4B4FF46E
:104D9000165E80E808400C2200238360C360036134
:104DA00042618361C36103624362FEF754FC18B140
:104DB000BDE80840FFF768BE08BD00BF241E002004
:104DC0000044004030B5054689B01422002103A8F4
:104DD0001AF0DEF82A682B4B9A4251D103F5E633DC
:104DE000294CDA6942F40032DA61DA6902F40032FD
:104DF0000192019A5A6942F400325A615B6903F4E4
:104E000000330293029B0C23039302230493032396
:104E100006934FF09040072303A90793FDF7FCF991
:104E20001A4B23608022002320466360A360E26067
:104E300023616361A361E361FDF71EF908B1FFF728
:104E400023FE134A6C666562124C102384E80C0042
:104E5000204600238022A360E26023616361A36196
:104E6000E361FDF709F908B1FFF70EFE00222620E5
:104E70002C6611466562FDF787F82620FDF7B8F825
:104E800009B030BD00440040941E00206C00024078
:104E900080000240D81E0020DFF834D0002103E05B
:104EA0000C4B5B58435004310B480C4B42189A4250
:104EB000F6D30B4A02E0002342F8043B094B9A4226
:104EC000F9D3FFF72DFF19F089FEFFF72BFDFEE761
:104ED0000000012010CE020800000020D4020020B3
:104EE000D4020020201F0020FEE719F0C9BF0B46A6
:104EF0000146184619F0D8BA10B5002814BF044668
:104F00000124204619F0B4FF30B900F051FB08B974
:104F100019F07EFA8047F4E710BD1EB400F09BF84C
:104F20001EBCFCF7B9FD0378472B17D143784E2BF5
:104F300014D18378552B11D1C378432B0ED103792B
:104F4000432B0BD143792B2B08D183792B2B05D104
:104F5000C07901288CBF00200120704700207047D5
:104F60002DE9F3411E460378472B0D460246C179D1
:104F700048D143784E2B45D18378552B42D1C37805
:104F8000432B3FD10379462B3CD143794F2B39D169
:104F90008379522B36D1002934D1012308460024CD
:104FA00001943BBB40BB01290ABF52F8203CA2F14F
:104FB0002003783B012908BF52F8202C1C6818BF39
:104FC00058320192236820469B689847B0B1019BF4
:104FD0001B68019302272B6801AAD3F81080214691
:104FE00001232846C04758B1019B3360384602B0C0
:104FF000BDE8F081074CE5E7074CE3E70127EAE766
:105000000746F3E71046FFF78EFF80F00100C0B2BD
:105010000023C4E788A1020890A1020810B5044645
:105020000EF0B0FC02462046A4F12001FFF77BFF02
:1050300060B154F8043C0133012B44F8043C03D123
:10504000936844F8083C9160012010BD9368002BE0
:10505000F9D00EF0DFF910B50EF094FC826801462D
:105060000AB90EF0D7F902F120042046FFF75BFFE2
:1050700040B1D369013BD36113B9906988609361F2
:10508000204610BD8860FBE770B50023A0EBC0068A
:10509000C0EBC00210F8015B941905F07F02A2403A
:1050A00013432A06F4D40B6070BD30B500231A46B2
:1050B00010F8014B04F07F0595402B43250602F1C3
:1050C0000702F5D41F2A06D8640642BF4FF0FF340A
:1050D00004FA02F213430B6030BD5028F7B50546C1
:1050E0000E4614461F4607D1D01C20F0030050F88E
:1050F000043B3B6003B0F0BD00F00F030C2B2ED837
:10510000DFE803F025071D25292D2D2D2D1821253C
:10511000290001A92046FFF7B7FF019B002BE8D02B
:1051200005F07002102A08BF264633442A0648BFFD
:105130001B68DEE701A92046FFF7B7FFEDE7204631
:1051400030F8023BEAE7204630F9023BE6E720462A
:1051500050F8043BE2E7204650F8083BDEE719F040
:1051600057F908B50346FF2B084607D003F0700334
:10517000202B0DD004D80BB1102B07D1002008BD77
:10518000402B0DD0502BF9D0302B05D019F040F921
:10519000BDE80840FCF780BEBDE80840FCF780BED3
:1051A000BDE80840FCF768BE70B50C4601462046D5
:1051B00015461E46FFF7D5FF33462A4601462046D0
:1051C000BDE87040FFF789BF73B50E46144605462B
:1051D00028B3FCF751FE20603178FF2906F1010267
:1051E0001ED0231D2846FFF7DFFF024613782375E4
:1051F000FF2B02F1010015D01023237501A9FFF741
:1052000043FF019B0344E3600378637501A9013008
:10521000FFF73AFF019B0344236102B070BDDAE758
:105220006060E3E70023EEE71FB503AB00930023C4
:105230000A461946FCF78AF8039805B05DF804FBA6
:105240002DE9F04F91B00023049300F00303012BEC
:1052500007460C46164611D003D3022B03D019F093
:10526000D7F802071AD531462046FCF7F1FD18B1F0
:10527000092011B0BDE8F08F0820FAE700F008051A
:1052800005F0FF0885BBD1F8209010460D21FFF7EF
:10529000CBFF814540F04081062500E0012510ABA1
:1052A00007F0080743F82C4D009300233D430C22E0
:1052B00019463046FCF770F8062D40F03981D4F8D5
:1052C0003080A76AE16AB8F1000F0CBF4FF0010A05
:1052D0004FF0030A15F0080500F0CE80BAF1010F77
:1052E00040F0C6800EF096F80225D8E7079A1344DE
:1052F0009F4280F03781DDF82080B8F1000F01D0A7
:105300000B9B9844099F17B1781E0E9F0744B8F174
:10531000000FA8D0002F00F0A18015F00803029321
:1053200036D0472323704E2363705523A370432345
:10533000E370462323714F2363715223A37100232B
:10534000E3714FF0000A6FF0030B07A93846FFF72F
:10535000ACFE08A90390FFF7A8FE079A002A76D0B2
:105360003DDD9DF83C00FF2835D000F00703042BFD
:105370003FF675AF01A151F823F000BFDB530008E1
:105380005F520008A3530008DB530008D353000802
:10539000E379012B0CBF54F8203C04F1580304932B
:1053A000CFE702270D9909AB07FB12120C99FFF703
:1053B00094FE099969B32CB104AB00222046FFF793
:1053C000CFFD30BB089F002F44D0039B3B441F46BA
:1053D000BBE70827E6E70027E4E70427E2E70D9F9D
:1053E00001326CB3029B5BBB049B06930BFB027206
:1053F000171F57F8041F41B106AB0022394420465D
:10540000FFF7AEFD0028F4D0012181F00101002951
:10541000D8D0079F4FF0030AEB0727D5BAF1020F48
:105420003FF421AF0D213046049DFFF7FDFE65627C
:105430002062A762C4F82C90C4F83080062018E7D8
:105440000BFB02F2B958B1FA81F14909DFE74FF0DD
:10545000010AB7E7BAF1000F3FF405AF4FF0020AB7
:10546000DAE70027B8464FF0010AD5E7494631E7A9
:10547000002F23DA0DF0E0FFBAF1010F02D1204630
:105480000DF04FFF002F19DA0AAA3046FFF79CFEF5
:1054900031469DF83C00FFF764FE6FF0030307FB05
:1054A00003320D9B0C90134453F825200AB10135AB
:1054B000FAE70422A562E0622263636310AB304620
:1054C00043F81C4D009300231A461946FBF764FF6E
:1054D00010AB012243F8207D00930023194630468B
:1054E000FBF75AFF0F213046FFF79EFE10AB00F08E
:1054F000010040EA080043F8240D009300230F2226
:1055000019463046FBF748FFBAF1020F02D1204698
:10551000FFF784FD0720ACE610AA434642F82C4D65
:105520004146009230460C2245F00205FBF734FF5D
:105530003046FCF7A7FC814600283FF494AE0AAA47
:1055400001463046FFF740FE314680469DF83C005C
:10555000FFF707FE0F210C903046FFF765FE20F0A5
:105560000100471E0E9B9845BFF47BAF424606AB39
:105570009DF83D100020FFF717FE07AB02469DF88F
:105580003D100020FFF710FE08AB02469DF83D10CD
:105590000020FFF709FE09A9FFF776FD069A0A9B8E
:1055A00013449F428046BFF4A1AEDDF83880D9E7AE
:1055B000024B1868BFF35B8F704700BF2C070020B9
:1055C0007FB5102302930368002415469E6900945A
:1055D0006B468DF8044003941268B0479DF8043080
:1055E00003F00603062B03BF009B2B60012020461F
:1055F00004B070BD009890420CBF06200120704797
:1056000010B5034B0360044600F04BF8204610BD74
:105610005C8E020810B50446FFF7F2FF2046082111
:105620000EF0B4F9204610BD38B515461C4600F002
:105630003BF820B10823E36006232560237138BDC1
:105640002DE9F04105460C4616461F4600F02CF8A1
:1056500048B9032F07D823683246294620465B699C
:10566000BDE8F0411847BDE8F0812DE9F041069E04
:10567000099C9846089B9E420746154603D1079908
:1056800000F012F858B94146384600F00DF818B14C
:10569000012326602571A3710020BDE8F0816571AA
:1056A000FAE7704700207047814208B50ED0406885
:1056B00003782A2B0CD049680B782A2B08BF0131BC
:1056C000FAF7DEFDB0FA80F0400908BD012008BD00
:1056D000002008BD2DE9F843334D2B685A1C0746BE
:1056E0002A60002B5CD1314C314B3248DFF8F0801E
:1056F000DFF8F090304E01221A70236899680DF09F
:105700004BFD23682D4859680DF046FD23682C4851
:10571000D9680DF041FD2749404600F0FDF82749C2
:1057200048460DF06BFB2649304600F0F5F8244959
:10573000244800F0F1F83369C6F8748043F400534C
:1057400033612368C9F8788099681F481F4EDFF8D5
:1057500098800DF031FD23681D4859680DF02CFD2F
:1057600023681C48D9681C4C0DF026FD16493046AC
:1057700000F02CF9164940460DF08CFB15492046E7
:1057800000F024F91349154800F020F92369C8F8FE
:10579000786043F4005323612B68666701332B6004
:1057A0003846BDE8F88300BF700D0020BC00002023
:1057B0003400002080070020B008002030070020BF
:1057C000580700203C090020F8070020080C0020A2
:1057D000A8070020D0070020E80A0020780B00204E
:1057E000C809002020080020540A00200D4A136830
:1057F000591E022B10B50446116011D10A4800F061
:10580000C1F80A4800F0BEF8094800F0BBF80948A2
:1058100000F012F9084800F00FF9084800F00CF900
:10582000204610BD700D0020C8090020B0080020DF
:105830003C090020080C0020E80A0020780B00201A
:105840007047704710B5054B03601433044640F8A9
:10585000043F05F0BDFD204610BD00BFAC8E020820
:10586000036853F80C2C064B10B58418835020465F
:10587000143340F8043F05F0ABFD204610BD00BFD7
:10588000AC8E020810B5054B03601433044640F893
:10589000043F05F0A7FD204610BD00BFDC8E0208C6
:1058A000036853F80C2C064B10B58418835020461F
:1058B000143340F8043F05F095FD204610BD00BFAD
:1058C000DC8E020810B50446FFF7BCFF2046FFF748
:1058D0000CFB204610BD036853F80C3C1844F1E75C
:1058E00010B50446FFF7CEFF2046FFF7FEFA20462C
:1058F00010BD036853F80C3C1844F1E70B6810B571
:105900000446036053F80C0C4B68235011462044A6
:1059100005F0D0FD204610BD70B5051D0446284693
:105920000E4605F093FD054B236014332846636053
:10593000314605F0BFFD204670BD00BFAC8E0208A9
:1059400010B5044679B91368236071B953F80C3C5B
:10595000234461B952681A608B0702D5201D05F0F7
:1059600037FD204610BD034BEEE70423F0E7024A63
:10597000F1E700BFAC8E0208C08E02080A46002183
:10598000FFF7DEBF036853F80C3C034410B5044630
:10599000986F50B10CF0DAFD013006D1236853F84E
:1059A0000C0C0121204405F04BFD204610BD0B6876
:1059B00010B50446036053F80C0C4B682350114695
:1059C000204405F0DCFD204610BD000070B5051D2B
:1059D000044628460E4605F09DFD054B2360143312
:1059E00028466360314605F0CAFD204670BD00BF01
:1059F000DC8E020810B5044679B91368236071B9CA
:105A000053F80C3C234461B952681A608B0702D5E5
:105A1000201D05F0E7FC204610BD034BEEE70423F4
:105A2000F0E7024AF1E700BFDC8E0208F08E0208C0
:105A30000A460021FFF7DEBF036853F80C3C03441D
:105A400010B50446D86F50B10CF0AEFD013006D150
:105A5000236853F80C0C0121204405F055FD204625
:105A600010BD0846704708467047000010B5084B47
:105A7000044640F8083B0EF0C5FA237B1BB1A06931
:105A800008B10DF02FFC20460EF00BF8204610BD9B
:105A9000B88F020810B50446FFF7E8FF2046FFF76D
:105AA00024FA204610BD10B502981446521A19F077
:105AB0004AFA204610BD10B518461446521A19F07D
:105AC00042FA204610BD000010B5064B044640F8CF
:105AD000083B0EF097FA044B236020460DF0E1FFDF
